:100000000C9446000C9465000C9465000C946500FB
:100010000C9465000C9465000C9465000C946500CC
:100020000C9465000C9465000C9465000C946500BC
:100030000C9465000C9465000C9465000C946500AC
:100040000C9485020C9465000C9465000C9465007A
:100050000C9465000C9465000C9465000C9465008C
:100060000C9465000C9465000C9465000C9465007C
:100070000C9465000C9465000C9465000C9465006C
:100080000C9465000C9465000C94650011241FBE4F
:10009000CFEFD0E1DEBFCDBF11E0A0E0B1E0E6ECF4
:1000A000F3E100E00BBF02C007900D92AC32B10744
:1000B000D9F721E0ACE2B1E001C01D92A638B20749
:1000C000E1F70E94FC080C94E1090C94000087B34E
:1000D000876087BB8DB18C658DB9709A089580B7A4
:1000E000886080BF87B7816087BF83B7816083BF27
:1000F00008958FB58FBD8EB58EBD10927A0087B7EB
:10010000806187BF86B7806186BF1DBC1CBC80E84C
:1001100090E09BBD8ABD089585B5896685BD08952B
:10012000EBE8F0E0808180688083EAE8F0E080819D
:100130008960808310928C0087B7806187BF86B703
:10014000806186BF8FE990E090938100809380006A
:1001500010928900109288001092870010928600F9
:1001600008951FB8779BFECF8FB10895482FE82FD1
:10017000F0E099B3EE0FFF1FED5BFE4F2081318160
:10018000220F331F306E892F90E002C0959587951E
:100190004A95E2F781709927282B392B31832083E8
:1001A00081E02115304F09F080E008951ABA8FEFF1
:1001B0008BBB86B398B38067892B88BBE3E4F1E0FF
:1001C00020E030E061E070E005C02F5F3F4F283055
:1001D000310539F199B340815181440F551F892F61
:1001E00090E0022E02C0959587950A94E2F78170FF
:1001F0009927842B952B906E819391938115904F25
:1002000021F7CB01022E02C0880F991F0A94E2F752
:1002100090933601809335012F5F3F4F2830310591
:10022000C9F688B318BA80913501909136018038AB
:10023000910509F447C080913501909136018034D1
:10024000910509F44EC080913501909136010597D2
:1002500020F0109236011092350180913501909175
:100260003601049709F445C080913501909136011B
:100270008130910519F082309105F9F440913101F6
:1002800050913201209135013091360142175307C8
:10029000A1F19093320180933101109236011092B6
:1002A00035018FEF8ABB80913101909132018FB976
:1002B000779BFECFC09AC0980895809131019091AC
:1002C0003201E7CF9091390181E091111FC08093F5
:1002D000390180913501909136018034910509F002
:1002E000B2CF9091380181E091110CC08093380118
:1002F000AACF81E080933801B7CF109232011092DB
:100300003101CBCF80E0809338019DCF80E0809396
:100310003901DFCF83B113B887EC90E00197F1F793
:1003200000C0000083B18FEF83B982B312BA1FB847
:10033000779BFECF9FB1919A20913101309132018C
:10034000822F492F43709C7096959695209131018C
:10035000309132012130310509F444C0209131013E
:10036000309132012230310529F0409355019093AC
:100370005401089520915501642F70E0022E000C65
:10038000330B62177307D1F020915501211103C07F
:10039000413009F489C02091550121111DC042301E
:1003A000D9F420913B01215020933B0120913B0146
:1003B00027FFDBCF27E120933B01D7CF20915401CA
:1003C000211103C0913009F489C0209154012111F9
:1003D00003C0923009F475C080E0409355019093BA
:1003E0005401089520915501642F70E0022E000CF5
:1003F000330B62177307D1F020915501222349F086
:1004000020915501211103C0423009F440C080E021
:10041000A5CF4130A9F720913E012F5F20933E01E7
:1004200020913E01283109F099CF1CC02091540140
:1004300021111BC09130C9F420913F012F5F2093FF
:100440003F0120913F012C3309F088CF10923F01EA
:1004500020913E012F5F20933E0120913E012831E3
:100460000CF47CCF10923E0179CF209154012111E0
:10047000CECF923061F620913F01215020933F0171
:1004800020913F0127FF6ACF2BE320933F0120916A
:100490003E01215020933E0120913E0127FF5ECF77
:1004A00027E120933E015ACF20913B012F5F2093FB
:1004B0003B0120913B01283109F057CF10923B01BD
:1004C00054CF20913C01215020933C0120913C01CC
:1004D00027FF4BCF2BE320933C0163CF20913C01BE
:1004E0002F5F20933C0120913C012C3309F03DCF3C
:1004F00010923C0120913B012F5F20933B01209102
:100500003B0128310CF431CFD9CF1F920F920FB697
:100510000F9211240BB60F922F933F934F935F933B
:100520006F937F938F939F93AF93BF93EF93FF93BB
:10053000809142018F5F809342018F7729F48091EF
:1005400040018F5F809340010E94D6000E948A0183
:10055000FF91EF91BF91AF919F918F917F916F919B
:100560005F914F913F912F910F900BBE0F900FBE57
:100570000F901F901895809140018C3309F4A4C00E
:100580008091310190913201029709F45AC0909103
:100590003E0187E69802E12D1124E595E59597FD4A
:1005A000E3950E2E000CFF0BE050FF4F90819093CF
:1005B0003001E0913E01E802812D11248595859559
:1005C000E7FD83959AE0899FE01911240E2E000C17
:1005D000FF0BE050FF4F808180932F0180914001FD
:1005E00080FD2BC087E080932E0190913F0187E62C
:1005F0009802E12D1124E595E59597FDE3950E2EE2
:10060000000CFF0BE050FF4F908190932D01E09183
:100610003F01E802812D112485958595E7FD83959D
:100620009AE0899FE01911240E2E000CFF0BE05078
:10063000FF4F808180932C01089584E080932E01E8
:10064000D4CF90913B0187E69802E12D1124E595E6
:10065000E59597FDE3950E2E000CFF0BE050FF4F44
:10066000908190933001E0913B01E802812D1124AB
:1006700085958595E7FD83959AE0899FE01911247A
:100680000E2E000CFF0BE050FF4F808180932F0156
:100690008091400180FD33C087E080932E019091CE
:1006A0003C0187E69802E12D1124E595E59597FD3B
:1006B000E3950E2E000CFF0BE050FF4F90819093BE
:1006C0002D01E0913C01A5CF80913F018F5F809388
:1006D0003F011092400180913F018C3309F050CFCF
:1006E00080913E018F5F80933E0110923F01809187
:1006F0003E01883109F044CF10923E0141CF84E0A1
:1007000080932E01CCCF84B39FEF94BB87B3806FCF
:1007100087BB169A81B38B6081BBA89A919A83B1EB
:1007200093B908950F93809139018823C1F1809185
:100730004101811134C080913B018A302CF08091BD
:100740003C018A300CF05DC080913B018A30A4F5F9
:1007500080913C018A300CF451C083E291E00E9408
:100760005F0680913B0100E020E040E062E0082E5F
:10077000000C990B0E9424088FE191E00E945F0613
:1007800080913C0120E040E062E0082E000C990BD3
:100790000E94240881E0809341010F910895809187
:1007A00039018111FACF809141018130B1F7109266
:1007B00041010F910C94D70585E191E00E945F06FD
:1007C00080913B0100E020E040E062E0082E000C58
:1007D000990B0E9424088FE191E00E945F0681E25C
:1007E00091E00E945F0680913C0120E040E061E0E2
:1007F000082E000C990B0E942408CCCF83E291E0D4
:10080000DDCF85E191E0ABCFE1E6F0E080818F774D
:100810008083E2E6F0E080818F77808387B1876410
:1008200087B986B1876886B90895369A349BFECF1A
:10083000449A24B135B1369527953695279580E0B1
:1008400091E0821B930B8C3E910510F08BEE90E0B3
:1008500083BD089580913901882331F090913E0144
:1008600080913B01981729F0109287001092860022
:10087000089590913F0180913C019813F5CF8EE946
:1008800090E09093870080938600089591E0811115
:1008900001C090E09FB9779BFECF6FB9779BFECFE9
:1008A0008091620088608093620080916200877FFF
:1008B00080936200089520915301820F911DFC01E5
:1008C000808191E09FB9779BFECF8FB9779BFECF58
:1008D0008091620088608093620080916200877FCF
:1008E00080936200809153018F5F80935301803128
:1008F000F9F0803209F00895E5EDEA95F1F700008E
:100900001FB8779BFECF80E88FB9779BFECF809191
:10091000620088608093620080916200877F80938C
:100920006200F5EDFA95F1F7000010925301089579
:10093000F5EDFA95F1F700001FB8779BFECF80EC3C
:100940008FB9779BFECF80916200886080936200B0
:1009500080916200877F8093620085ED8A95F1F730
:10096000000080915301C5CF660F660F660F605C73
:100970001FB8779BFECF6FB9779BFECF20916200A7
:1009800028602093620020916200277F20936200FC
:1009900025ED2A95F1F70000FC019C01285F3F4FEF
:1009A00091E081919FB9779BFECF8FB9779BFECF66
:1009B0008091620088608093620080916200877FEE
:1009C0008093620085ED8A95F1F70000E217F30746
:1009D00041F7089590E4899F600D1124605C1FB871
:1009E000779BFECF6FB9779BFECF809162008860C6
:1009F0008093620080916200877F809362000895F7
:100A0000811113C081E08FB9779BFECF80E38FB94E
:100A1000779BFECF80916200886080936200809116
:100A20006200877F8093620008958436B0F48A3034
:100A300060F591E09FB9779BFECF9DEC899F912D4A
:100A400011249695969596952AE0929F80191124E7
:100A5000805D8FB9779BFECFDDCF99E2899F912D85
:100A6000112492959F70905D21E02FB9779BFECF66
:100A70009FB9779BFECF909162009860909362003F
:100A800090916200977F9093620099E2899F912DE7
:100A9000112492959F70382F24E6929F30191124CB
:100AA0002DEC329F912D1124969596959695905DFB
:100AB00021E02FB9779BFECF9FB9779BFECF909116
:100AC000620098609093620090916200977F90938B
:100AD0006200AFCF87FF0C94000591E09FB9779B30
:100AE000FECF9DE29FB9779BFECF90916200986008
:100AF0009093620090916200977F9093620095EDD1
:100B00009A95F1F7000081950C9400051FB8779B2A
:100B1000FECF8EE08FB9779BFECF80916200886018
:100B20008093620080916200877F809362000895C5
:100B30001FB8779BFECF8CE08FB9779BFECF80915B
:100B4000620088608093620080916200877F80935A
:100B5000620008951FB8779BFECF8EE18FB9779B17
:100B6000FECF809162008860809362008091620075
:100B7000877F8093620008951FB8779BFECF88E13E
:100B80008FB9779BFECF809162008860809362006E
:100B900080916200877F809362000895E2E6F0E032
:100BA0008081886080838081877F808308951FB8DB
:100BB000779BFECF81E08FB9779BFECF809162005B
:100BC00088608093620080916200877F80936200DA
:100BD0008FE19CE10197F1F700C0000008951FB874
:100BE000779BFECF82E08FB9779BFECF809162002A
:100BF00088608093620080916200877F80936200AA
:100C00008FE697E10197F1F700C0000008951FB843
:100C1000779BFECF80EC8FB9779BFECF80916200EF
:100C200088608093620080916200877F8093620079
:100C300085ED8A95F1F7000008951FB8779BFECFE8
:100C400080E88FB9779BFECF8091620088608093A7
:100C5000620080916200877F8093620085ED8A95B3
:100C6000F1F70000089590E131E020E23FB9779B71
:100C7000FECF2FB9779BFECF809162008860809372
:100C8000620080916200877F8093620085ED8A9583
:100C9000F1F70000915051F7089591E09FB9779BCB
:100CA000FECF8FB9779BFECF8091620088608093E2
:100CB000620080916200877F809362000895FC014A
:100CC00040E050E060E071E0DF01A40FB51F8C91BF
:100CD0007FB9779BFECF8FB9779BFECF9091620053
:100CE00098609093620090916200977F9093620069
:100CF00085ED8A95F1F700006F5F462F50E0DF0128
:100D00000D900020E9F79D012E1B3F0B2250310969
:100D100024173507C8F608958FEF99EF0197F1F77B
:100D200000C0000088E0809361001FB8779BFECF71
:100D300080E38FB9779BFECF8091620088608093BB
:100D4000620080916200877F809362008FE59DE65C
:100D50000197F1F700C000001FB8779BFECF80E33A
:100D60008FB9779BFECF809162008860809362008C
:100D700080916200877F809362008FE59DE60197F6
:100D8000F1F700C000001FB8779BFECF80E38FB95A
:100D9000779BFECF80916200886080936200809193
:100DA0006200877F809362008FE59DE60197F1F7EF
:100DB00000C000001FB8779BFECF88E38FB9779BF8
:100DC000FECF809162008860809362008091620013
:100DD000877F809362008FE19EE40197F1F700C066
:100DE00000001FB8779BFECF88E08FB9779BFECFBE
:100DF0008091620088608093620080916200877FAA
:100E0000809362008FE19EE40197F1F700C000003B
:100E10001FB8779BFECF81E08FB9779BFECF809183
:100E2000620088608093620080916200877F809377
:100E300062008FE19EE40197F1F700C000001FB847
:100E4000779BFECF86E08FB9779BFECF80916200C3
:100E500088608093620080916200877F8093620047
:100E60008FE19EE40197F1F700C000001FB8779B67
:100E7000FECF8CE08FB9779BFECF809162008860B7
:100E80008093620080916200877F809362008FE18F
:100E90009EE40197F1F700C0000008954F925F9221
:100EA0006F927F928F929F92AF92BF92CF92DF927A
:100EB000EF92FF920F931F93CF93DF93CDB7DEB7DF
:100EC00069970FB6F894DEBF0FBECDBF142F422E28
:100ED0005E2C002379F06B017C01CC24F7FCC394D9
:100EE000DD24EE24FF240C2D6B017C0197FDA3C0B3
:100EF000C701B601442009F496C09E012F5F3F4F01
:100F00005901490166246A94640C712C3FEF631AFD
:100F1000730A6A0C7B1C2AE030E040E050E00E943B
:100F20008C09E62F2A8B3B8B4C8B5D8B6A897B89E6
:100F30008C899D8920E32E0FF40121934F016E16B9
:100F40007F0649F799249394940CF501E40DF11D63
:100F50002EE220832AE030E040E050E00E948C093D
:100F6000E62F2A8B3B8B4C8B5D8B6E8B7F8B888F18
:100F7000998F6A897B898C899D8931E0390DD501EA
:100F8000A90DB11DE05DEC93932E611571058105EE
:100F9000910501F7112361F051104BC090E2311718
:100FA00038F4F501E30FF11D90833F5F1313F9CF80
:100FB000002331F0F501E30FF11D9DE290833F5FC7
:100FC00021E03150F501E30FF11D90812FB9779B9E
:100FD000FECF9FB9779BFECF90916200986090936F
:100FE000620090916200977F9093620085ED8A95F0
:100FF000F1F700003111E5CF69960FB6F894DEBF26
:101000000FBECDBFDF91CF911F910F91FF90EF9059
:10101000DF90CF90BF90AF909F908F907F906F9018
:101020005F904F900895912C9E012F5F3F4F590183
:1010300091CF90E3B4CFF094E094D094C094C11CCD
:10104000D11CE11CF11C54CF5F926F927F928F9262
:101050009F92AF92BF92CF92DF92EF92FF920F9347
:101060001F93CF93DF93CDB7DEB761970FB6F89498
:10107000DEBF0FBECDBF5C01162F742E6B2C661C1D
:101080006624661C562C9C0197FD9BC0772009F4B2
:101090008DC0CE0101967C016C0188248A94870C56
:1010A000912C9FEF891A990A8E0C9F1C6AE070E0C0
:1010B000C9010E947809462F242F372F805DF60141
:1010C00081936F01E815F90589F7DD24D394D70CD6
:1010D000F701E70DF11D8EE2808301C0D92E6AE091
:1010E00070E0C9010E947809462F242F372F91E024
:1010F0009D0DF701ED0DF11D805D808321153105FA
:1011000069F7011158C0B7FC61C01123A9F0712C17
:1011100080E2292F30E0412F50E04619570924176B
:10112000350754F49F5FF701E20FF31F8083292FE7
:1011300030E024173507B4F3552031F0F701E90FFB
:10114000F11D8DE280839F5F21E09150F701E90F4F
:10115000F11D80812FB9779BFECF8FB9779BFECF92
:101160008091620088608093620080916200877F36
:1011700080936200E5EDEA95F1F700009111E5CF6B
:1011800061960FB6F894DEBF0FBECDBFDF91CF9151
:101190001F910F91FF90EF90DF90CF90BF90AF9095
:1011A0009F908F907F906F905F900895D12CCE018B
:1011B00001967C0194CF112309F4BECF712C80E3FA
:1011C000A8CF22273327281B390B60CFD394D39481
:1011D000F701E90FF11D8DE28083112359F02D2DC8
:1011E00030E0412F50E02417350724F49D2D512C79
:1011F00080E298CF9D2DA8CF87B3876087BB8DB144
:101200008C658DB9709A80B7886080BF87B7816020
:1012100087BF83B7816083BF8FB58FBD8EB58EBD0D
:1012200010927A0087B7806187BF86B7806186BFDA
:101230001DBC1CBC80E890E09BBD8ABD85B589665D
:1012400085BD0E9490000E948303809161008F778A
:1012500080936100809162008F778093620087B1F4
:10126000876487B986B1876886B90E948C067894AE
:10127000CEE9D0E01FEF80913901882331F09091C1
:101280003E0180913B01981741F110928700109226
:1012900086000E9415040E94BB020E949203ECE2A9
:1012A000F1E080E090913901992329F090912E018D
:1012B000937090932E0191919BBB982F9295907F64
:1012C00098BBAFE1B3E01197F1F700C000001BBB82
:1012D0008F5F853039F718BACECF90913F0180915A
:1012E0003C019813D2CFD0938700C0938600D1CF12
:1012F00097FB072E16F4009407D077FD09D00E94C3
:10130000AB0907FC05D03EF4909581959F4F089559
:10131000709561957F4F0895052E97FB1EF40094FC
:101320000E94A30957FD07D00E94BF0907FC03D004
:101330004EF40C94A30950954095309521953F4F5C
:101340004F4F5F4F089590958095709561957F4FB1
:101350008F4F9F4F0895AA1BBB1B51E107C0AA1FC7
:10136000BB1FA617B70710F0A61BB70B881F991F46
:101370005A95A9F780959095BC01CD010895A1E2F9
:101380001A2EAA1BBB1BFD010DC0AA1FBB1FEE1FFF
:10139000FF1FA217B307E407F50720F0A21BB30B4A
:1013A000E40BF50B661F771F881F991F1A9469F7C6
:1013B00060957095809590959B01AC01BD01CF0122
:0613C0000895F894FFCF30
:1013C600C0F9A4B0999282F880908883C6A1868ECF
:1013D600FF00050001414C41524D20617420003A46
:0C13E600003000414C41524D2061740069
:00000001FF
