S0110000616C61726D5F636C6B2E737265636D
S11300000C9446000C9465000C9465000C946500F7
S11300100C9465000C9465000C9465000C946500C8
S11300200C9465000C9465000C9465000C946500B8
S11300300C9465000C9465000C9465000C946500A8
S11300400C94E3010C9465000C9465000C94650019
S11300500C9465000C9465000C9465000C94650088
S11300600C9465000C9465000C9465000C94650078
S11300700C9465000C9465000C9465000C94650068
S11300800C9465000C9465000C94650011241FBE4B
S1130090CFEFD0E1DEBFCDBF11E0A0E0B1E0EEE0F4
S11300A0F0E100E00BBF02C007900D92A631B1074A
S11300B0D9F721E0A6E1B1E001C01D92AA36B2074A
S11300C0E1F70E945E070C9405080C94000087B3C6
S11300D0876087BB8DB18C658DB9709A08951FB800
S11300E0779BFECF8FB10895482FE82FF0E099B3A6
S11300F0EE0FFF1FE95DFE4F20813181220F331F78
S1130100306E892F90E002C0959587954A95E2F765
S113011081709927282B392B3183208381E0211585
S1130120304F09F080E008951ABA8FEF8BBB86B385
S113013098B38067892B88BBE7E2F1E020E030E0E8
S113014061E070E005C02F5F3F4F2830310539F181
S113015099B340815181440F551F892F90E0022E9D
S113016002C0959587950A94E2F781709927842BAC
S1130170952B906E819391938115904F21F7CB012C
S1130180022E02C0880F991F0A94E2F7909320016F
S113019080931F012F5F3F4F28303105C9F688B384
S11301A018BA80911F019091200180389105E1F1E6
S11301B080911F0190912001059720F01092200159
S11301C010921F0180911F019091200182309105AE
S11301D009F44AC08430910579F181309105C1F068
S11301E080911B0190911C0190931C0180931B0131
S11301F01092200110921F018FEF8ABB80911B0186
S113020090911C018FB9779BFECFC09AC098089536
S113021040911B0150911C0120911F01309120013C
S11302204217530709F731C09091220181E09111DF
S113023038C080932201BCCF20911B0130911C0156
S113024080911F01909120012817390731F0809186
S11302501B0190911C010297C1F084E090E09093FF
S11302601C0180931B01C4CF20911B0130911C0100
S113027080911F01909120012817390759F080912E
S11302801B0190911C01049729F410921C011092F7
S11302901B01AECF82E090E090931C0180931B0180
S11302A0A7CF80E08093220183CF83B113B887EC7A
S11302B090E00197F1F700C0000083B18FEF83B99C
S11302C082B312BA1FB8779BFECF9FB1919A209147
S11302D01B0130911C01822F492F43709C7096950D
S11302E0969520911B0130911C012130310529F094
S11302F04093390190933801089520913901642F76
S113030070E0022E000C330B62177307C9F02091C2
S11303103901211102C0413029F120913901211103
S11303201BC04230C9F420911501215020931501BE
S11303302091150127FFDCCF27E120931501D8CFA9
S113034020913801211102C0913059F120913801D6
S1130350211102C0923099F080E0409339019093CA
S113036038010895209115012F5F209315012091E4
S11303701501283109F0BCCF10921501B9CF209195
S113038024012150209324012091240127FFB0CF80
S11303902BE3209324012091150121502093150172
S11303A0A7CF209124012F5F2093240120912401C1
S11303B02C3309F09DCF10922401209115012F5F59
S11303C02093150195CF1F920F920FB60F9211240F
S11303D00BB60F922F933F934F935F936F937F933B
S11303E08F939F93AF93BF93EF93FF9380912601D5
S11303F08F5F809326018F7729F4809125018F5F89
S1130400809325010E9494000E945501FF91EF9171
S1130410BF91AF919F918F917F916F915F914F9118
S11304203F912F910F900BBE0F900FBE0F901F9016
S11304301895809125018C3360F0809124018F5FA1
S11304408093240110922501809124018C330CF0B7
S11304506CC08091140181110EC0809115018D3002
S11304602CF0809115018C50809315018091150119
S1130470882309F456C09091150187E69802E12D6E
S11304801124E595E59597FDE3950E2E000CFF0BE1
S1130490E050FF4F908190931A01E0911501E8021A
S11304A0812D112485958595E7FD83959AE0899F93
S11304B0E01911240E2E000CFF0BE050FF4F808139
S11304C0809319018091250180FD3EC087E08093CF
S11304D018019091240187E69802E12D1124E595F5
S11304E0E59597FDE3950E2E000CFF0BE050FF4FB2
S11304F0908190931701E0912401E802812D112449
S113050085958595E7FD83959AE0899FE0191124E7
S11305100E2E000CFF0BE050FF4F808180931601DC
S113052008958CE080931501A6CF809115018F5F0B
S113053080931501109224018091150188310CF4E7
S113054088CF1092150185CF84E080931801C1CF24
S113055091E0811101C090E09FB9779BFECF6FB904
S1130560779BFECF809162008860809362008091C7
S11305706200877F80936200089520913701820F83
S1130580911DFC01808191E09FB9779BFECF8FB9CB
S1130590779BFECF80916200886080936200809197
S11305A06200877F80936200809137018F5F809320
S11305B037018031F9F0803209F00895E5EDEA95CC
S11305C0F1F700001FB8779BFECF80E88FB9779BC7
S11305D0FECF809162008860809362008091620007
S11305E0877F80936200F5EDFA95F1F70000109291
S11305F037010895F5EDFA95F1F700001FB8779BE0
S1130600FECF80EC8FB9779BFECF8091620088602B
S11306108093620080916200877F8093620085ED01
S11306208A95F1F7000080913701C5CF660F660FF8
S1130630660F605C1FB8779BFECF6FB9779BFECFC8
S11306402091620028602093620020916200277F3D
S11306502093620025ED2A95F1F70000FC019C012E
S1130660285F3F4F91E081919FB9779BFECF8FB96F
S1130670779BFECF809162008860809362008091B6
S11306806200877F8093620085ED8A95F1F7000010
S1130690E217F30741F7089590E4899F600D112450
S11306A0605C1FB8779BFECF6FB9779BFECF8091BC
S11306B0620088608093620080916200877F8093EB
S11306C062000895811113C081E08FB9779BFECF3A
S11306D080E38FB9779BFECF80916200886080931E
S11306E0620080916200877F80936200089584365F
S11306F0B0F48A3060F591E09FB9779BFECF9DEC12
S1130700899F912D11249695969596952AE0929F0E
S113071080191124805D8FB9779BFECFDDCF99E2DC
S1130720899F912D112492959F70905D21E02FB99E
S1130730779BFECF9FB9779BFECF90916200986024
S11307409093620090916200977F9093620099E287
S1130750899F912D112492959F70382F24E6929FA2
S1130760301911242DEC329F912D112496959695D4
S11307709695905D21E02FB9779BFECF9FB9779B2B
S1130780FECF909162009860909362009091620015
S1130790977F90936200AFCF87FF0C94620391E040
S11307A09FB9779BFECF9DE29FB9779BFECF909137
S11307B0620098609093620090916200977F90939A
S11307C0620095ED9A95F1F7000081950C9462030F
S11307D01FB8779BFECF8EE08FB9779BFECF8091B9
S11307E0620088608093620080916200877F8093BA
S11307F0620008951FB8779BFECF8CE08FB9779B7A
S1130800FECF8091620088608093620080916200D4
S1130810877F8093620008951FB8779BFECF8EE197
S11308208FB9779BFECF80916200886080936200CD
S113083080916200877F8093620008951FB8779B40
S1130840FECF88E18FB9779BFECF809162008860EC
S11308508093620080916200877F80936200089594
S1130860E2E6F0E08081886080838081877F8083F6
S113087008951FB8779BFECF81E08FB9779BFECF99
S11308808091620088608093620080916200877F1B
S1130890809362008FE19CE10197F1F700C00000B2
S11308A008951FB8779BFECF82E08FB9779BFECF68
S11308B08091620088608093620080916200877FEB
S11308C0809362008FE697E10197F1F700C0000082
S11308D008951FB8779BFECF80EC8FB9779BFECF2E
S11308E08091620088608093620080916200877FBB
S11308F08093620085ED8A95F1F7000008951FB892
S1130900779BFECF80E88FB9779BFECF8091620002
S113091088608093620080916200877F8093620088
S113092085ED8A95F1F70000089590E131E020E229
S11309303FB9779BFECF2FB9779BFECF80916200A2
S113094088608093620080916200877F8093620058
S113095085ED8A95F1F70000915051F7089591E0E3
S11309609FB9779BFECF8FB9779BFECF80916200B2
S113097088608093620080916200877F8093620028
S11309800895FC0140E050E060E071E0DF01A40F55
S1130990B51F8C917FB9779BFECF8FB9779BFECF24
S11309A09091620098609093620090916200977FAA
S11309B09093620085ED8A95F1F700006F5F462FF2
S11309C050E0DF010D900020E9F79D012E1B3F0B45
S11309D02250310924173507C8F608958FEF99EF8F
S11309E00197F1F700C0000088E0809361001FB810
S11309F0779BFECF80E38FB9779BFECF8091620017
S1130A0088608093620080916200877F8093620097
S1130A108FE59DE60197F1F700C000001FB8779BB2
S1130A20FECF80E38FB9779BFECF80916200886010
S1130A308093620080916200877F809362008FE5DB
S1130A409DE60197F1F700C000001FB8779BFECF29
S1130A5080E38FB9779BFECF80916200886080939A
S1130A60620080916200877F809362008FE59DE63B
S1130A700197F1F700C000001FB8779BFECF88E311
S1130A808FB9779BFECF809162008860809362006B
S1130A9080916200877F809362008FE19EE40197DA
S1130AA0F1F700C000001FB8779BFECF88E08FB934
S1130AB0779BFECF80916200886080936200809172
S1130AC06200877F809362008FE19EE40197F1F7D3
S1130AD000C000001FB8779BFECF81E08FB9779BE1
S1130AE0FECF8091620088608093620080916200F2
S1130AF0877F809362008FE19EE40197F1F700C045
S1130B0000001FB8779BFECF86E08FB9779BFECF9E
S1130B108091620088608093620080916200877F88
S1130B20809362008FE19EE40197F1F700C000001A
S1130B301FB8779BFECF8CE08FB9779BFECF809157
S1130B40620088608093620080916200877F809356
S1130B5062008FE19EE40197F1F700C00000089560
S1130B604F925F926F927F928F929F92AF92BF92B9
S1130B70CF92DF92EF92FF920F931F93CF93DF9365
S1130B80CDB7DEB769970FB6F894DEBF0FBECDBF01
S1130B90142F422E5E2C002379F06B017C01CC24AF
S1130BA0F7FCC394DD24EE24FF240C2D6B017C019F
S1130BB097FDA3C0C701B601442009F496C09E0165
S1130BC02F5F3F4F5901490166246A94640C712CCC
S1130BD03FEF631A730A6A0C7B1C2AE030E040E0A2
S1130BE050E00E94B007E62F2A8B3B8B4C8B5D8B29
S1130BF06A897B898C899D8920E32E0FF4012193D6
S1130C004F016E167F0649F799249394940CF501CD
S1130C10E40DF11D2EE220832AE030E040E050E0B4
S1130C200E94B007E62F2A8B3B8B4C8B5D8B6E8B1F
S1130C307F8B888F998F6A897B898C899D8931E024
S1130C40390DD501A90DB11DE05DEC93932E61150D
S1130C5071058105910501F7112361F051104BC015
S1130C6090E2311738F4F501E30FF11D90833F5FF3
S1130C701313F9CF002331F0F501E30FF11D9DE2C9
S1130C8090833F5F21E03150F501E30FF11D908126
S1130C902FB9779BFECF9FB9779BFECF90916200CF
S1130CA098609093620090916200977F90936200A5
S1130CB085ED8A95F1F700003111E5CF69960FB6FD
S1130CC0F894DEBF0FBECDBFDF91CF911F910F917E
S1130CD0FF90EF90DF90CF90BF90AF909F908F9058
S1130CE07F906F905F904F900895912C9E012F5F9D
S1130CF03F4F590191CF90E3B4CFF094E094D09456
S1130D00C094C11CD11CE11CF11C54CF5F926F92A2
S1130D107F928F929F92AF92BF92CF92DF92EF9287
S1130D20FF920F931F93CF93DF93CDB7DEB76197F5
S1130D300FB6F894DEBF0FBECDBF5C01162F742E24
S1130D406B2C661C6624661C562C9C0197FD9BC06C
S1130D50772009F48DC0CE0101967C016C018824B2
S1130D608A94870C912C9FEF891A990A8E0C9F1CE8
S1130D706AE070E0C9010E949C07462F242F372F98
S1130D80805DF60181936F01E815F90589F7DD248B
S1130D90D394D70CF701E70DF11D8EE2808301C0D7
S1130DA0D92E6AE070E0C9010E949C07462F242FC7
S1130DB0372F91E09D0DF701ED0DF11D805D8083CE
S1130DC02115310569F7011158C0B7FC61C0112321
S1130DD0A9F0712C80E2292F30E0412F50E0461910
S1130DE057092417350754F49F5FF701E20FF31FE7
S1130DF08083292F30E024173507B4F3552031F0D0
S1130E00F701E90FF11D8DE280839F5F21E091508E
S1130E10F701E90FF11D80812FB9779BFECF8FB9C0
S1130E20779BFECF809162008860809362008091FE
S1130E306200877F80936200E5EDEA95F1F7000098
S1130E409111E5CF61960FB6F894DEBF0FBECDBF0A
S1130E50DF91CF911F910F91FF90EF90DF90CF9092
S1130E60BF90AF909F908F907F906F905F90089508
S1130E70D12CCE0101967C0194CF112309F4BECF6D
S1130E80712C80E3A8CF22273327281B390B60CF8E
S1130E90D394D394F701E90FF11D8DE280831123DC
S1130EA059F02D2D30E0412F50E02417350724F45C
S1130EB09D2D512C80E298CF9D2DA8CF80B78860BE
S1130EC080BF87B7816087BF83B7816083BF84B3E6
S1130ED09FEF94BB87B3806F87BB169A81B38B60F7
S1130EE081BB85B385BB919A83B193B987B387607E
S1130EF087BB8DB18C658DB9709A78940E94190264
S1130F00E6E1F1E080E090912201992329F09091AB
S1130F10180193709093180191919BBB982F92950F
S1130F20907F98BBAFE1B3E01197F1F700C00000E8
S1130F308F5F853041F7E2CF97FB072E16F40094BC
S1130F4007D077FD09D00E94CF0707FC05D03EF4F7
S1130F50909581959F4F0895709561957F4F089561
S1130F60052E97FB1EF400940E94C70757FD07D077
S1130F700E94E30707FC03D04EF40C94C707509576
S1130F804095309521953F4F4F4F5F4F0895909571
S1130F908095709561957F4F8F4F9F4F0895AA1B41
S1130FA0BB1B51E107C0AA1FBB1FA617B70710F050
S1130FB0A61BB70B881F991F5A95A9F78095909582
S1130FC0BC01CD010895A1E21A2EAA1BBB1BFD0191
S1130FD00DC0AA1FBB1FEE1FFF1FA217B307E40714
S1130FE0F50720F0A21BB30BE40BF50B661F771F6C
S1130FF0881F991F1A9469F760957095809590954C
S11110009B01AC01BD01CF010895F894FFCF10
S113100EC0F9A4B0999282F880908883C6A1868E86
S109101EFF000500010CB7
S9030000FC
