S00C00006C6162352E73726563B4
S11300000C9497000C94B6000C94B6000C94B600B3
S11300100C94B6000C94B6000C94B6000C94B60084
S11300200C94B6000C94B6000C94B6000C94B60074
S11300300C9407050C94B6000C942E050C94AD0397
S11300400C9477030C94B6000C9455050C94B600EC
S11300500C94B6000C94B6000C94B6000C94B60044
S11300600C94B6000C94B6000C94B6000C94B60034
S11300700C94B6000C94B6000C94B6000C94B60024
S11300800C94B6000C94390A0C94B6007A0A510AFE
S1130090510A510A510A510A510A510A7A0A510A5B
S11300A0510A510A510A510A510A510A840A510A41
S11300B0510A510A510A510A510A510A510A510A64
S11300C0510A510A510A510A510A510A840A510A21
S11300D0510A510A510A510A510A510A510A510A44
S11300E0510A510A510A510A510A510A9B0A510AEA
S11300F0510A510A510A510A510A510A9F0A510AD6
S1130100510A510A510A510A510A510A510A510A13
S1130110510A510A510A510A510A510AAD0A510AA7
S1130120510A510A510A510A510A510A6B0A1124FF
S11301301FBECFEFD0E1DEBFCDBF11E0A0E0B1E044
S1130140E0E2F9E100E00BBF02C007900D92A63493
S1130150B107D9F722E0A6E4B1E001C01D92A433AF
S1130160B207E1F70E94380B0C948E0C0C9400003B
S11301709091570180915A01981721F081E0809362
S11301805201089510925201089587B3876087BB86
S11301908DB18C658DB9709A089580B7886080BFE1
S11301A087B7836087BF83B7816083BF8FEF81BFC9
S11301B008958EB58B608EBD10927A0087B78461E6
S11301C087BF80E490E09BBD8ABD089585B58966AC
S11301D085BD0895EBE8F0E0808182688083EAE8D9
S11301E0F0E080818961808310928C008FE990E037
S11301F0909381008093800010928900109288006F
S1130200909387008093860008951FB8779BFECF54
S11302108FB10895482FE82FF0E099B3EE0FFF1F38
S1130220E05AFE4F20813181220F331F306E892F17
S113023090E002C0959587954A95E2F781709927D9
S1130240282B392B3183208381E02115304F09F08D
S113025080E008951ABA8FEF8BBB86B398B380679A
S1130260892B88BBE0E6F1E020E030E061E070E05B
S113027005C02F5F3F4F2830310539F199B34081D4
S11302805181440F551F892F90E0022E02C095958D
S113029087950A94E2F781709927842B952B906EA9
S11302A0819391938115904F21F7CB01022E02C0C7
S11302B0880F991F0A94E2F79093500180934F019D
S11302C02F5F3F4F28303105C9F688B318BA8091A3
S11302D04F01909150018038910509F479C08091C3
S11302E04F019091500180349105C9F180914F01E3
S11302F090915001059720F01092500110924F01F7
S113030080914F01909150018130910519F0823014
S1130310910501F540914B0150914C0120914F0101
S1130320309150014217530709F45AC090934C017D
S113033080934B011092500110924F018FEF8ABBB2
S113034080914B0190914C018FB9779BFECFC09A5D
S1130350C098089580914B0190914C01E7CF909102
S1130360520181E0911145C08093520180915A015C
S1130370865F80935701809157018D3308F4B6CF7F
S11303809091570189E8989F812D11248295869533
S113039087702CE3829F90191124909357018091C8
S11303A056018F5F80935601809156018C3309F07A
S11303B09DCF809155018F5F809355011092560116
S11303C080915501883109F091CF109255018ECF5B
S11303D09091530181E0911108C0809353017FCF24
S11303E010924C0110924B01A5CF80E080935301F1
S11303F076CF80E0B9CF83B113B887EC90E0019752
S1130400F1F700C0000083B18FEF83B982B38F701E
S113041082BB1FB8779BFECF9FB182B3806F82BB34
S113042020914B0130914C01822F692F63709C7095
S11304309695969520914B0130914C01232B09F50B
S11304402091AA01462F50E0022E000C330B4217D4
S11304505307B9F02091AA01211126C0613021F57A
S113046020911501265F2093150120911501203A52
S113047008F0E5C02091150130E030938700209307
S1130480860020914B0130914C0121303105F1F06F
S113049020914B0130914C0122303105B1F1609330
S11304A0AA019093980108952091AA01211103C0F3
S11304B0623009F4AFC020911501209315012091F9
S11304C04B0130914C012130310511F72091AA01E3
S11304D0462F50E0022E000C330B4217530709F449
S11304E05AC02091AA01222309F447C02091AA01ED
S11304F0211103C0623009F480C080E020914B01D7
S113050030914C012230310551F62091AA01462F39
S113051050E0022E000C330B42175307D1F0209108
S1130520AA01211103C0613009F47CC02091AA0101
S113053021111DC06230D9F420915501215020931E
S113054055012091550127FFAACF27E1209355019A
S1130550A6CF20919801211103C0913009F486C0DF
S113056020919801211103C0923009F472C080E0F7
S11305706093AA01909398010895613009F0B6CF71
S1130580209158012F5F2093580120915801283160
S113059009F07ECF1CC02091980121111BC091301D
S11305A0C9F4209159012F5F2093590120915901D9
S11305B02C3309F06DCF10925901209158012F5F0F
S11305C0209358012091580128310CF461CF1092E6
S11305D058015ECF2091980121118FCF923009F0FC
S11305E08CCF209159012150209359012091590118
S11305F027FF4ECF2BE3209359012091580121501E
S1130600209358012091580127FF42CF27E12093DE
S113061058013ECF209115012A50209315012091B5
S1130620150128CF209155012F5F2093550120916A
S11306305501283109F033CF1092550130CF2FE9FD
S1130640209315012FE930E0309387002093860032
S113065018CF209156012150209356012091560124
S113066027FF1DCF2BE32093560166CF209156011F
S11306702F5F20935601209156012C3309F00FCFA0
S113068010925601209155012F5F2093550120911E
S1130690550128310CF403CFCFCF42E062EE71E074
S11306A080E90E94DD0A8FE39FE10197F1F700C022
S11306B000008091E2019091E3019827892798270F
S11306C04AE06BEA71E0880F892F881F990B919596
S11306D00E94590C0E94440786E191E00E949C0705
S11306E08BEA91E00E949C0783E40C948A071F9292
S11306F00F920FB60F9211240BB60F922F933F93C4
S11307004F935F936F937F938F939F93AF93BF9315
S1130710EF93FF9380915F018F5F80935F018F77E9
S113072029F480915A018F5F80935A010E942A0113
S11307300E94FB01FF91EF91BF91AF919F918F9127
S11307407F916F915F914F913F912F910F900BBECD
S11307500F900FBE0F901F9018951F920F920FB617
S11307600F9211240BB60F922F933F934F935F93E5
S11307706F937F938F939F93AF93BF93EF93FF9365
S113078080915E018F5F80935E018F7731F40E94C8
S11307904D0389E191E00E94FF0AFF91EF91BF911F
S11307A0AF919F918F917F916F915F914F913F9105
S11307B02F910F900BBE0F900FBE0F901F901895A6
S11307C080915A018C3309F4A4C080914B0190911B
S11307D04C01029709F45AC09091580187E6980297
S11307E0E12D1124E595E59597FDE3950E2E000C7A
S11307F0FF0BE050FF4F908190934A01E091580124
S1130800E802812D112485958595E7FD83959AE06D
S1130810899FE01911240E2E000CFF0BE050FF4FAE
S113082080818093490180915A0180FD2BC087E02B
S1130830809348019091590187E69802E12D112493
S1130840E595E59597FDE3950E2E000CFF0BE05022
S1130850FF4F908190934701E0915901E802812D67
S1130860112485958595E7FD83959AE0899FE01984
S113087011240E2E000CFF0BE050FF4F808180935B
S11308804601089584E080934801D4CF90915501A6
S113089087E69802E12D1124E595E59597FDE3950A
S11308A00E2E000CFF0BE050FF4F908190934A01F5
S11308B0E0915501E802812D112485958595E7FD88
S11308C083959AE0899FE01911240E2E000CFF0BEA
S11308D0E050FF4F80818093490180915A0180FD4F
S11308E033C087E0809348019091560187E69802CF
S11308F0E12D1124E595E59597FDE3950E2E000C69
S1130900FF0BE050FF4F908190934701E091560117
S1130910A5CF809159018F5F8093590110925A019C
S1130920809159018C3309F050CF809158018F5F29
S1130930809358011092590180915801883109F02F
S113094044CF1092580141CF84E080934801CCCF2A
S113095084B38FEF84BB97B3906F97BB92B19F64BE
S113096092B991B381BBE1E6F0E090819860908305
S1130970A89A92B382BB93B183B90895809153012D
S1130980882321F080915D01882389F080915301AF
S1130990811104C080915D01813009F008951092A5
S11309A05D010E945A0780E491E00C949C070E9428
S11309B05A078BE191E00E949C0781E080935D01DE
S11309C00895E1E6F0E080818F778083E2E6F0E04D
S11309D080818F77808387B1876487B986B1876880
S11309E086B90895369A349BFECF449A24B135B122
S11309F036952795369527958FEF90E0821B930BBC
S1130A008C3E910510F08BEE90E083BD08951F920B
S1130A100F920FB60F9211248F939F9380915201DE
S1130A2081110AC080915301882331F090915801BB
S1130A3080915501981739F09F918F910F900FBEB7
S1130A400F901F9018959091590180915601981319
S1130A50F3CF90B384E0892782BBEECF1F920F922D
S1130A600FB60F9211248F9387E480938C018F919A
S1130A700F900FBE0F901F90189580915201811115
S1130A800C94B80008951092E00141E062EE71E028
S1130A9080E90E94CC0A2FEF81EE94E0215080403F
S1130AA09040E1F700C0000008951F920F920FB626
S1130AB00F9211240BB60F928F939F93EF93FF9392
S1130AC08CB18093A901E0915C0191E09E0F909319
S1130AD05C01F0E0E756FE4F8083811109C081E09C
S1130AE08093720180E280838183828310925C010F
S1130AF0FF91EF919F918F910F900BBE0F900FBEBE
S1130B000F901F90189591E0811101C090E09FB95A
S1130B10779BFECF6FB9779BFECF80916200886090
S1130B208093620080916200877F809362000895C1
S1130B3020917001820F911DFC01808191E09FB989
S1130B40779BFECF8FB9779BFECF80916200886040
S1130B508093620080916200877F8093620080911D
S1130B6070018F5F809370018031F9F0803209F059
S1130B700895E5EDEA95F1F700001FB8779BFECFE5
S1130B8080E88FB9779BFECF809162008860809364
S1130B90620080916200877F80936200F5EDFA9590
S1130BA0F1F70000109270010895F5EDFA95F1F750
S1130BB000001FB8779BFECF80EC8FB9779BFECFE8
S1130BC08091620088608093620080916200877FD8
S1130BD08093620085ED8A95F1F7000080917001A1
S1130BE0C5CF660F660F660F605C1FB8779BFECF9C
S1130BF06FB9779BFECF209162002860209362003A
S1130C0020916200277F2093620025ED2A95F1F759
S1130C100000FC019C01285F3F4F91E081919FB946
S1130C20779BFECF8FB9779BFECF8091620088605F
S1130C308093620080916200877F8093620085EDDB
S1130C408A95F1F70000E217F30741F7089590E45D
S1130C50899F600D1124605C1FB8779BFECF6FB92C
S1130C60779BFECF809162008860809362008091C0
S1130C706200877F809362000895811113C081E030
S1130C808FB9779BFECF80E38FB9779BFECF80919E
S1130C90620088608093620080916200877F809305
S1130CA0620008958436B0F48A3060F591E09FB90B
S1130CB0779BFECF9DEC899F912D11249695969557
S1130CC096952AE0929F80191124805D8FB9779BB5
S1130CD0FECFDDCF99E2899F912D112492959F70CB
S1130CE0905D21E02FB9779BFECF9FB9779BFECF14
S1130CF09091620098609093620090916200977F57
S1130D009093620099E2899F912D112492959F708E
S1130D10382F24E6929F301911242DEC329F912D07
S1130D201124969596959695905D21E02FB9779B21
S1130D30FECF9FB9779BFECF90916200986090930D
S1130D40620090916200977F90936200AFCF87FF1B
S1130D500C943D0691E09FB9779BFECF9DE29FB92D
S1130D60779BFECF9091620098609093620090917F
S1130D706200977F9093620095ED9A95F1F70000D9
S1130D8081950C943D061FB8779BFECF8EE08FB9FA
S1130D90779BFECF8091620088608093620080918F
S1130DA06200877F8093620008951FB8779BFECF0F
S1130DB08CE08FB9779BFECF80916200886080932E
S1130DC0620080916200877F8093620008951FB85B
S1130DD0779BFECF8EE18FB9779BFECF8091620027
S1130DE088608093620080916200877F80936200B4
S1130DF008951FB8779BFECF88E18FB9779BFECF0C
S1130E008091620088608093620080916200877F95
S1130E10809362000895E2E6F0E080818860808338
S1130E208081877F808308951FB8779BFECF81E000
S1130E308FB9779BFECF80916200886080936200B7
S1130E4080916200877F809362008FE19CE101972B
S1130E50F1F700C0000008951FB8779BFECF82E031
S1130E608FB9779BFECF8091620088608093620087
S1130E7080916200877F809362008FE697E10197FB
S1130E80F1F700C0000008951FB8779BFECF80ECF7
S1130E908FB9779BFECF8091620088608093620057
S1130EA080916200877F8093620085ED8A95F1F7D7
S1130EB0000008951FB8779BFECF80E88FB9779B19
S1130EC0FECF80916200886080936200809162000E
S1130ED0877F8093620085ED8A95F1F7000008957D
S1130EE090E131E020E23FB9779BFECF2FB9779BA9
S1130EF0FECF8091620088608093620080916200DE
S1130F00877F8093620085ED8A95F1F70000915008
S1130F1051F7089591E09FB9779BFECF8FB9779BE6
S1130F20FECF8091620088608093620080916200AD
S1130F30877F809362000895FC0140E050E060E008
S1130F4071E0DF01A40FB51F8C917FB9779BFECFB1
S1130F508FB9779BFECF9091620098609093620066
S1130F6090916200977F9093620085ED8A95F1F7E6
S1130F7000006F5F462F50E0DF010D900020E9F77D
S1130F809D012E1B3F0B2250310924173507C8F64B
S1130F9008958FEF99EF0197F1F700C0000088E002
S1130FA0809361001FB8779BFECF80E38FB9779B56
S1130FB0FECF80916200886080936200809162001D
S1130FC0877F809362008FE59DE60197F1F700C06B
S1130FD000001FB8779BFECF80E38FB9779BFECFCD
S1130FE08091620088608093620080916200877FB4
S1130FF0809362008FE59DE60197F1F700C0000041
S11310001FB8779BFECF80E38FB9779BFECF80918B
S1131010620088608093620080916200877F809381
S113102062008FE59DE60197F1F700C000001FB84C
S1131030779BFECF88E38FB9779BFECF80916200C8
S113104088608093620080916200877F8093620051
S11310508FE19EE40197F1F700C000001FB8779B71
S1131060FECF88E08FB9779BFECF809162008860C5
S11310708093620080916200877F809362008FE199
S11310809EE40197F1F700C000001FB8779BFECFE4
S113109081E08FB9779BFECF809162008860809356
S11310A0620080916200877F809362008FE19EE4FA
S11310B00197F1F700C000001FB8779BFECF86E0D0
S11310C08FB9779BFECF8091620088608093620025
S11310D080916200877F809362008FE19EE4019794
S11310E0F1F700C000001FB8779BFECF8CE08FB9EA
S11310F0779BFECF8091620088608093620080912C
S11311006200877F809362008FE19EE40197F1F78C
S113111000C0000008954F925F926F927F928F9269
S11311209F92AF92BF92CF92DF92EF92FF920F9372
S11311301F93CF93DF93CDB7DEB769970FB6F894BB
S1131140DEBF0FBECDBF142F422E5E2C002379F0DC
S11311506B017C01CC24F7FCC394DD24EE24FF2432
S11311600C2D6B017C0197FDA3C0C701B60144207F
S113117009F496C09E012F5F3F4F5901490166242F
S11311806A94640C712C3FEF631A730A6A0C7B1C1B
S11311902AE030E040E050E00E94FB0BE62F2A8B6F
S11311A03B8B4C8B5D8B6A897B898C899D8920E381
S11311B02E0FF40121934F016E167F0649F79924EF
S11311C09394940CF501E40DF11D2EE220832AE0A2
S11311D030E040E050E00E94FB0BE62F2A8B3B8B73
S11311E04C8B5D8B6E8B7F8B888F998F6A897B8903
S11311F08C899D8931E0390DD501A90DB11DE05DC2
S1131200EC93932E611571058105910501F7112366
S113121061F051104BC090E2311738F4F501E30F3F
S1131220F11D90833F5F1313F9CF002331F0F501D3
S1131230E30FF11D9DE290833F5F21E03150F50102
S1131240E30FF11D90812FB9779BFECF9FB9779B58
S1131250FECF90916200986090936200909162003A
S1131260977F9093620085ED8A95F1F70000311124
S1131270E5CF69960FB6F894DEBF0FBECDBFDF9100
S1131280CF911F910F91FF90EF90DF90CF90BF907F
S1131290AF909F908F907F906F905F904F90089544
S11312A0912C9E012F5F3F4F590191CF90E3B4CF12
S11312B0F094E094D094C094C11CD11CE11CF11CA6
S11312C054CF5F926F927F928F929F92AF92BF9210
S11312D0CF92DF92EF92FF920F931F93CF93DF93FE
S11312E0CDB7DEB761970FB6F894DEBF0FBECDBFA2
S11312F05C01162F742E6B2C661C6624661C562CFF
S11313009C0197FD9BC0772009F48DC0CE01019606
S11313107C016C0188248A94870C912C9FEF891A94
S1131320990A8E0C9F1C6AE070E0C9010E94E70BC9
S1131330462F242F372F805DF60181936F01E81526
S1131340F90589F7DD24D394D70CF701E70DF11DD6
S11313508EE2808301C0D92E6AE070E0C9010E9448
S1131360E70B462F242F372F91E09D0DF701ED0D4C
S1131370F11D805D80832115310569F7011158C085
S1131380B7FC61C01123A9F0712C80E2292F30E051
S1131390412F50E0461957092417350754F49F5F2D
S11313A0F701E20FF31F8083292F30E0241735075C
S11313B0B4F3552031F0F701E90FF11D8DE280837C
S11313C09F5F21E09150F701E90FF11D80812FB952
S11313D0779BFECF8FB9779BFECF809162008860A8
S11313E08093620080916200877F80936200E5EDC4
S11313F0EA95F1F700009111E5CF61960FB6F894E4
S1131400DEBF0FBECDBFDF91CF911F910F91FF9033
S1131410EF90DF90CF90BF90AF909F908F907F9090
S11314206F905F900895D12CCE0101967C0194CFEA
S1131430112309F4BECF712C80E3A8CF22273327D0
S1131440281B390B60CFD394D394F701E90FF11D16
S11314508DE28083112359F02D2D30E0412F50E08F
S11314602417350724F49D2D512C80E298CF9D2D0F
S1131470A8CF1F920F920FB60F9211240BB60F92A2
S11314802F933F938F939F93AF93BF93EF93FF93C8
S1131490E09171008E2F90E0FC013897E135F10561
S11314A0B0F0809171008093DB0184E0809374003C
S11314B0FF91EF91BF91AF919F918F913F912F91A8
S11314C00F900BBE0F900FBE0F901F901895EA5B04
S11314D0FF4F0C941A0C80917101E091DC01F091A2
S11314E0DD01E80FF11D80917300808384E980930E
S11314F07400DECF8091DE0180937300109271013D
S113150085E880937400D4CF809171019091DF01BC
S1131510891760F7E091DC01F091DD0191E0980F0B
S113152090937101E80FF11D80818093730085E829
S113153080937400BDCF85EA80937400B9CF209165
S113154071018091DF0130E090E00197281739079D
S1131550DCF485EC80937400ABCFE091DC01F09176
S1131560DD018091710121E0280F20937101E80FC2
S1131570F11D8091730080838091DF0130E090E061
S11315800197281739072CF385E88093740090CFCE
S113159080917400817008959091740090FDFCCF47
S11315A08E7F8093DE017093DD016093DC014093B4
S11315B0DF0185EA8093740008959091740090FD92
S11315C0FCCF81608093DE017093DD016093DC01C8
S11315D04093DF0185EA8093740008958FEF809330
S11315E07300109271008CE08093700008958FEF67
S11315F008955D9BFECF8CB95D9BFECF0895FC01E1
S11316009081992349F031965D9BFECF9CB95D9BF7
S1131610FECF91919111F8CF08959C01FC01449162
S1131620442369F00196F90124915D9BFECF2CB906
S11316305D9BFECF9C01FC0144914111F3CF0895C1
S11316408AB188618AB9E5E9F0E0808186608083A7
S11316501092900080E189B9089580E89EE302C069
S1131660019721F05F9BFCCF8CB1089580E0089531
S113167087B3876087BB8DB18C658DB9709A80B74D
S1131680886080BF87B7836087BF83B7816083BF6B
S11316908FEF81BF8EB58B608EBD10927A0087B7B5
S11316A0846187BF80E490E09BBD8ABD85B589666F
S11316B085BD80918B00826880938B0080918A0025
S11316C0896180938A0010928C008FE990E0909356
S11316D0810080938000109289001092880090937A
S11316E0870080938600809161008F7780936100EA
S11316F0809162008F778093620087B1876487B995
S113170086B1876886B90E94A8040E94EE0A1092E6
S1131710E00141E062EE71E080E90E94CC0A2FEF23
S113172081EE94E0215080409040E1F700C0000039
S113173080E2E1E2F1E0A3E7B1E001900D928A9545
S1131740E1F70E94200B0E94C9077894CFEF8091A3
S11317507201813059F180915201811135C00E948A
S1131760F2040E94E0030E94BE04E6E4F1E080E09B
S113177090915301992329F090914801937090938B
S1131780480191919BBB982F9295907F98BBAFE1B4
S1131790B3E01197F1F700C00000CBBB8F5F853039
S11317A039F718BA809172018130A9F680919901B4
S11317B080938C0180919A0180938D011092720123
S11317C080915201882359F20E94B800C8CF97FB38
S11317D0072E16F4009407D077FD09D00E94230C3D
S11317E007FC05D03EF4909581959F4F0895709520
S11317F061957F4F0895052E97FB1EF400940E9477
S1131800120C57FD07D00E94370C07FC03D04EF48E
S11318100C94120C50954095309521953F4F4F4FA5
S11318205F4F089590958095709561957F4F8F4F88
S11318309F4F0895EE0FFF1F0024001C0BBE07905E
S1131840F691E02D0994AA1BBB1B51E107C0AA1F06
S1131850BB1FA617B70710F0A61BB70B881F991F4D
S11318605A95A9F780959095BC01CD010895A1E200
S11318701A2EAA1BBB1BFD010DC0AA1FBB1FEE1F06
S1131880FF1FA217B307E407F50720F0A21BB30B51
S1131890E40BF50B661F771F881F991F1A9469F7CD
S11318A060957095809590959B01AC01BD01CF0129
S11318B00895BB274A3031F4992322F4BDE2909570
S11318C081959F4F0C94650CBB27FB015527AA27D4
S11318D0880F991FAA1FA41710F0A41B83955051B9
S11318E0B9F7A05DAA3308F0A95DA193009779F731
S11318F0B111B1931192CB010C947E0CDC01FC016B
S1131900672F71917723E1F7329704C07C916D932F
S113191070836291AE17BF07C8F30895F894FFCFA0
S1131920C0F9A4B0999282F880908883C6A1868E6B
S1131930FF000500019F4C3A004100416C61726D4B
S113194000202020202020202020202020202020B3
S11319502020202020202020202020202020202083
S1091960202020202000DD
S9030000FC
