:100000000C9497000C94B6000C94B6000C94B600B7
:100010000C94B6000C94B6000C94B6000C94B60088
:100020000C94B6000C94B6000C94B6000C94B60078
:100030000C9404050C94B6000C94B6000C94AE031A
:100040000C9478030C94B6000C9443050C94B60001
:100050000C94B6000C94B6000C94B6000C94B60048
:100060000C94B6000C94B6000C94B6000C94B60038
:100070000C94B6000C94B6000C94B6000C94B60028
:100080000C94B6000C94270A0C94B600680A3F0A38
:100090003F0A3F0A3F0A3F0A3F0A3F0A680A3F0AEF
:1000A0003F0A3F0A3F0A3F0A3F0A3F0A720A3F0AD5
:1000B0003F0A3F0A3F0A3F0A3F0A3F0A3F0A3F0AF8
:1000C0003F0A3F0A3F0A3F0A3F0A3F0A720A3F0AB5
:1000D0003F0A3F0A3F0A3F0A3F0A3F0A3F0A3F0AD8
:1000E0003F0A3F0A3F0A3F0A3F0A3F0A890A3F0A7E
:1000F0003F0A3F0A3F0A3F0A3F0A3F0A8D0A3F0A6A
:100100003F0A3F0A3F0A3F0A3F0A3F0A3F0A3F0AA7
:100110003F0A3F0A3F0A3F0A3F0A3F0A9B0A3F0A3B
:100120003F0A3F0A3F0A3F0A3F0A3F0A590A112481
:100130001FBECFEFD0E1DEBFCDBF11E0A0E0B1E048
:10014000EAE0F9E100E00BBF02C007900D92A43392
:10015000B107D9F722E0A4E3B1E001C01D92A230BB
:10016000B207E1F70E94260B0C94830C0C9400005C
:100170009091450180914801981721F081E080938A
:100180004001089510924001089587B3876087BBAE
:100190008DB18C658DB9709A089580B7886080BFE5
:1001A00087B7836087BF83B7816083BF8FEF81BFCD
:1001B00008958EB58B608EBD10927A0087B78461EA
:1001C00087BF80E490E09BBD8ABD089585B58966B0
:1001D00085BD0895EBE8F0E0808182688083EAE8DD
:1001E000F0E080818961808310928C008FE990E03B
:1001F0009093810080938000109289001092880073
:10020000909387008093860008951FB8779BFECF58
:100210008FB10895482FE82FF0E099B3EE0FFF1F3C
:10022000E25BFE4F20813181220F331F306E892F18
:1002300090E002C0959587954A95E2F781709927DD
:10024000282B392B3183208381E02115304F09F091
:1002500080E008951ABA8FEF8BBB86B398B380679E
:10026000892B88BBEEE4F1E020E030E061E070E053
:1002700005C02F5F3F4F2830310539F199B34081D8
:100280005181440F551F892F90E0022E02C0959591
:1002900087950A94E2F781709927842B952B906EAD
:1002A000819391938115904F21F7CB01022E02C0CB
:1002B000880F991F0A94E2F790933E0180933D01C5
:1002C0002F5F3F4F28303105C9F688B318BA8091A7
:1002D0003D0190913E018038910509F479C08091EB
:1002E0003D0190913E0180349105C9F180913D011D
:1002F00090913E01059720F010923E0110923D0131
:1003000080913D0190913E018130910519F082303C
:10031000910501F54091390150913A0120913D013B
:1003200030913E014217530709F45AC090933A01A5
:100330008093390110923E0110923D018FEF8ABBEC
:100340008091390190913A018FB9779BFECFC09A85
:10035000C09808958091390190913A01E7CF90912A
:10036000400181E0911145C0809340018091480196
:10037000865F80934501809145018D3308F4B6CFA7
:100380009091450189E8989F812D11248295869549
:1003900087702CE3829F90191124909345018091DE
:1003A00044018F5F80934401809144018C3309F0B4
:1003B0009DCF809143018F5F809343011092440150
:1003C00080914301883109F091CF109243018ECF83
:1003D0009091410181E0911108C0809341017FCF4C
:1003E00010923A0110923901A5CF80E0809341012B
:1003F00076CF80E0B9CF83B113B887EC90E0019756
:10040000F1F700C0000083B18FEF83B982B38F7022
:1004100082BB1FB8779BFECF9FB182B3806F82BB38
:100420002091390130913A01822F692F63709C70BD
:10043000969596952091390130913A01232B09F533
:1004400020917801462F50E0022E000C330B42170A
:100450005307B9F020917801211126C0613021F5B0
:1004600020911501265F2093150120911501203A56
:1004700008F0E5C02091150130E03093870020930B
:1004800086002091390130913A0121303105F1F097
:100490002091390130913A0122303105B1F1609358
:1004A000780190936601089520917801211103C08D
:1004B000623009F4AFC020911501209315012091FD
:1004C000390130913A012130310511F7209178013D
:1004D000462F50E0022E000C330B4217530709F44D
:1004E0005AC020917801222309F447C02091780155
:1004F000211103C0623009F480C080E020913901ED
:1005000030913A012230310551F620917801462F81
:1005100050E0022E000C330B42175307D1F020910C
:100520007801211103C0613009F47CC02091780169
:1005300021111DC06230D9F4209143012150209334
:1005400043012091430127FFAACF27E120934301D4
:10055000A6CF20916601211103C0913009F486C015
:1005600020916601211103C0923009F472C080E02D
:1005700060937801909366010895613009F0B6CFD9
:10058000209146012F5F209346012091460128319A
:1005900009F07ECF1CC02091660121111BC0913053
:1005A000C9F4209147012F5F209347012091470113
:1005B0002C3309F06DCF10924701209146012F5F37
:1005C000209346012091460128310CF461CF10920E
:1005D00046015ECF2091660121118FCF923009F044
:1005E0008CCF209147012150209347012091470152
:1005F00027FF4ECF2BE32093470120914601215046
:10060000209346012091460127FF42CF27E1209306
:1006100046013ECF209115012A50209315012091CB
:10062000150128CF209143012F5F20934301209192
:100630004301283109F033CF1092430130CF2FE925
:10064000209315012FE930E0309387002093860036
:1006500018CF20914401215020934401209144015E
:1006600027FF1DCF2BE32093440166CF2091440147
:100670002F5F20934401209144012C3309F00FCFC8
:1006800010924401209143012F5F20934301209158
:10069000430128310CF403CFCFCF42E060EB71E08F
:1006A00080E90E94CB0A8FE99FE00197F1F700C033
:1006B00000008091B0019091B10198278927982777
:1006C0004AE069E771E0880F892F881F990B91959F
:1006D0000E944E0C0E943207E6E1F1E0A9E7B1E08A
:1006E0008C91828311968C918383CF010C948A071D
:1006F0001F920F920FB60F9211240BB60F922F93E9
:100700003F934F935F936F937F938F939F93AF9399
:10071000BF93EF93FF9380914D018F5F80934D01C5
:100720008F7729F4809148018F5F809348010E9460
:100730002A010E94FB01FF91EF91BF91AF919F9120
:100740008F917F916F915F914F913F912F910F907A
:100750000BBE0F900FBE0F901F9018951F920F9217
:100760000FB60F9211240BB60F922F933F934F9316
:100770005F936F937F938F939F93AF93BF93EF9309
:10078000FF9380914C018F5F80934C018F7711F420
:100790000E944D03FF91EF91BF91AF919F918F9177
:1007A0007F916F915F914F913F912F910F900BBE71
:1007B0000F900FBE0F901F901895809148018C33B9
:1007C00009F4A4C08091390190913A01029709F48B
:1007D0005AC09091460187E69802E12D1124E595D3
:1007E000E59597FDE3950E2E000CFF0BE050FF4FB3
:1007F000908190933801E0914601E802812D112407
:1008000085958595E7FD83959AE0899FE0191124E8
:100810000E2E000CFF0BE050FF4F808180933701BC
:100820008091480180FD2BC087E080933601909134
:10083000470187E69802E12D1124E595E59597FD9E
:10084000E3950E2E000CFF0BE050FF4F908190932C
:100850003501E0914701E802812D112485958595A8
:10086000E7FD83959AE0899FE01911240E2E000C74
:10087000FF0BE050FF4F808180933401089584E0A6
:1008800080933601D4CF9091430187E69802E12D01
:100890001124E595E59597FDE3950E2E000CFF0BD1
:1008A000E050FF4F908190933801E0914301E802BE
:1008B000812D112485958595E7FD83959AE0899F83
:1008C000E01911240E2E000CFF0BE050FF4F808129
:1008D000809337018091480180FD33C087E0809389
:1008E00036019091440187E69802E12D1124E595A7
:1008F000E59597FDE3950E2E000CFF0BE050FF4FA2
:10090000908190933501E0914401A5CF80914701FA
:100910008F5F8093470110924801809147018C338B
:1009200009F050CF809146018F5F8093460110926D
:10093000470180914601883109F044CF1092460169
:1009400041CF84E080933601CCCF84B38FEF84BB5A
:1009500097B3906F97BB92B19F6492B991B381BBEB
:10096000E1E6F0E0908198609083A89A92B382BB10
:1009700093B183B9089580914101882321F080913A
:100980004B01882389F080914101811104C080913D
:100990004B01813009F0089510924B010E944807E5
:1009A0008CE291E00C948A070E94480786E291E06D
:1009B0000E948A0781E080934B010895E1E6F0E010
:1009C00080818F778083E2E6F0E080818F7780837B
:1009D00087B1876487B986B1876886B90895369AE2
:1009E000349BFECF449A24B135B136952795369580
:1009F00027958FEF90E0821B930B8C3E910510F0B2
:100A00008BEE90E083BD08951F920F920FB60F9268
:100A100011248F939F938091400181110AC080918E
:100A20004101882331F0909146018091430198174C
:100A300039F09F918F910F900FBE0F901F901895D6
:100A400090914701809144019813F3CF90B384E0D3
:100A5000892782BBEECF8091400181110C94B800B0
:100A600008951092AE0141E060EB71E080E90E94D0
:100A7000BA0A2FEF81EE94E0215080409040E1F7D8
:100A800000C0000008951F920F920FB60F9211241C
:100A90000BB60F928F939F93EF93FF938CB180933C
:100AA0007701E0914A0191E09E0F90934A01F0E0B6
:100AB000E959FE4F8083811109C081E08093600174
:100AC00080E280838183828310924A01FF91EF91BB
:100AD0009F918F910F900BBE0F900FBE0F901F90A4
:100AE000189591E0811101C090E09FB9779BFECFEE
:100AF0006FB9779BFECF809162008860809362001F
:100B000080916200877F80936200089520915E014A
:100B1000820F911DFC01808191E09FB9779BFECFF0
:100B20008FB9779BFECF80916200886080936200CE
:100B300080916200877F8093620080915E018F5F69
:100B400080935E018031F9F0803209F00895E5ED7F
:100B5000EA95F1F700001FB8779BFECF80E88FB9C8
:100B6000779BFECF809162008860809362008091C5
:100B70006200877F80936200F5EDFA95F1F700003F
:100B800010925E010895F5EDFA95F1F700001FB897
:100B9000779BFECF80EC8FB9779BFECF8091620070
:100BA00088608093620080916200877F80936200FA
:100BB00085ED8A95F1F7000080915E01C5CF660F43
:100BC000660F660F605C1FB8779BFECF6FB9779B8F
:100BD000FECF209162002860209362002091620085
:100BE000277F2093620025ED2A95F1F70000FC0194
:100BF0009C01285F3F4F91E081919FB9779BFECF89
:100C00008FB9779BFECF80916200886080936200ED
:100C100080916200877F8093620085ED8A95F1F76D
:100C20000000E217F30741F7089590E4899F600DF3
:100C30001124605C1FB8779BFECF6FB9779BFECF06
:100C40008091620088608093620080916200877F5B
:100C5000809362000895811113C081E08FB9779B62
:100C6000FECF80E38FB9779BFECF809162008860D2
:100C70008093620080916200877F80936200089574
:100C80008436B0F48A3060F591E09FB9779BFECF4F
:100C90009DEC899F912D11249695969596952AE025
:100CA000929F80191124805D8FB9779BFECFDDCF95
:100CB00099E2899F912D112492959F70905D21E07A
:100CC0002FB9779BFECF9FB9779BFECF90916200A3
:100CD00098609093620090916200977F9093620079
:100CE00099E2899F912D112492959F70382F24E6C7
:100CF000929F301911242DEC329F912D112496953D
:100D000096959695905D21E02FB9779BFECF9FB980
:100D1000779BFECF909162009860909362009091D3
:100D20006200977F90936200AFCF87FF0C942B06F1
:100D300091E09FB9779BFECF9DE29FB9779BFECF55
:100D40009091620098609093620090916200977F0A
:100D50009093620095ED9A95F1F7000081950C94BF
:100D60002B061FB8779BFECF8EE08FB9779BFECF07
:100D70008091620088608093620080916200877F2A
:100D80008093620008951FB8779BFECF8CE08FB9E7
:100D9000779BFECF80916200886080936200809193
:100DA0006200877F8093620008951FB8779BFECF13
:100DB0008EE18FB9779BFECF80916200886080932F
:100DC000620080916200877F8093620008951FB85F
:100DD000779BFECF88E18FB9779BFECF8091620031
:100DE00088608093620080916200877F80936200B8
:100DF0000895E2E6F0E08081886080838081877FCB
:100E0000808308951FB8779BFECF81E08FB9779BD1
:100E1000FECF8091620088608093620080916200C2
:100E2000877F809362008FE19CE10197F1F700C01A
:100E3000000008951FB8779BFECF82E08FB9779BA3
:100E4000FECF809162008860809362008091620092
:100E5000877F809362008FE697E10197F1F700C0EA
:100E6000000008951FB8779BFECF80EC8FB9779B69
:100E7000FECF809162008860809362008091620062
:100E8000877F8093620085ED8A95F1F700000895D1
:100E90001FB8779BFECF80E88FB9779BFECF8091FC
:100EA000620088608093620080916200877F8093F7
:100EB000620085ED8A95F1F70000089590E131E038
:100EC00020E23FB9779BFECF2FB9779BFECF809171
:100ED000620088608093620080916200877F8093C7
:100EE000620085ED8A95F1F70000915051F7089561
:100EF00091E09FB9779BFECF8FB9779BFECF809112
:100F0000620088608093620080916200877F809396
:100F100062000895FC0140E050E060E071E0DF0114
:100F2000A40FB51F8C917FB9779BFECF8FB9779BAC
:100F3000FECF909162009860909362009091620061
:100F4000977F9093620085ED8A95F1F700006F5FBF
:100F5000462F50E0DF010D900020E9F79D012E1B88
:100F60003F0B2250310924173507C8F608958FEF3B
:100F700099EF0197F1F700C0000088E080936100CD
:100F80001FB8779BFECF80E38FB9779BFECF809110
:100F9000620088608093620080916200877F809306
:100FA00062008FE59DE60197F1F700C000001FB8D1
:100FB000779BFECF80E38FB9779BFECF8091620055
:100FC00088608093620080916200877F80936200D6
:100FD0008FE59DE60197F1F700C000001FB8779BF1
:100FE000FECF80E38FB9779BFECF8091620088604F
:100FF0008093620080916200877F809362008FE51A
:101000009DE60197F1F700C000001FB8779BFECF67
:1010100088E38FB9779BFECF8091620088608093D0
:10102000620080916200877F809362008FE19EE47E
:101030000197F1F700C000001FB8779BFECF88E052
:101040008FB9779BFECF80916200886080936200A9
:1010500080916200877F809362008FE19EE4019718
:10106000F1F700C000001FB8779BFECF81E08FB979
:10107000779BFECF809162008860809362008091B0
:101080006200877F809362008FE19EE40197F1F711
:1010900000C000001FB8779BFECF86E08FB9779B1A
:1010A000FECF809162008860809362008091620030
:1010B000877F809362008FE19EE40197F1F700C083
:1010C00000001FB8779BFECF8CE08FB9779BFECFD7
:1010D0008091620088608093620080916200877FC7
:1010E000809362008FE19EE40197F1F700C0000059
:1010F00008954F925F926F927F928F929F92AF92DC
:10110000BF92CF92DF92EF92FF920F931F93CF93F4
:10111000DF93CDB7DEB769970FB6F894DEBF0FBE89
:10112000CDBF142F422E5E2C002379F06B017C0181
:10113000CC24F7FCC394DD24EE24FF240C2D6B019A
:101140007C0197FDA3C0C701B601442009F496C0F5
:101150009E012F5F3F4F5901490166246A94640C38
:10116000712C3FEF631A730A6A0C7B1C2AE030E093
:1011700040E050E00E94F00BE62F2A8B3B8B4C8B1B
:101180005D8B6A897B898C899D8920E32E0FF40110
:1011900021934F016E167F0649F799249394940C7E
:1011A000F501E40DF11D2EE220832AE030E040E05D
:1011B00050E00E94F00BE62F2A8B3B8B4C8B5D8B13
:1011C0006E8B7F8B888F998F6A897B898C899D89AB
:1011D00031E0390DD501A90DB11DE05DEC93932EE1
:1011E000611571058105910501F7112361F0511019
:1011F0004BC090E2311738F4F501E30FF11D9083F5
:101200003F5F1313F9CF002331F0F501E30FF11D18
:101210009DE290833F5F21E03150F501E30FF11D26
:1012200090812FB9779BFECF9FB9779BFECF90918E
:10123000620098609093620090916200977F909313
:10124000620085ED8A95F1F700003111E5CF6996CE
:101250000FB6F894DEBF0FBECDBFDF91CF911F91C7
:101260000F91FF90EF90DF90CF90BF90AF909F9045
:101270008F907F906F905F904F900895912C9E017A
:101280002F5F3F4F590191CF90E3B4CFF094E0949A
:10129000D094C094C11CD11CE11CF11C54CF5F92AE
:1012A0006F927F928F929F92AF92BF92CF92DF9276
:1012B000EF92FF920F931F93CF93DF93CDB7DEB7DB
:1012C00061970FB6F894DEBF0FBECDBF5C01162F3D
:1012D000742E6B2C661C6624661C562C9C0197FD94
:1012E0009BC0772009F48DC0CE0101967C016C0172
:1012F00088248A94870C912C9FEF891A990A8E0C66
:101300009F1C6AE070E0C9010E94DC0B462F242F6D
:10131000372F805DF60181936F01E815F90589F794
:10132000DD24D394D70CF701E70DF11D8EE2808305
:1013300001C0D92E6AE070E0C9010E94DC0B462F83
:10134000242F372F91E09D0DF701ED0DF11D805DEC
:1013500080832115310569F7011158C0B7FC61C0C0
:101360001123A9F0712C80E2292F30E0412F50E0A9
:10137000461957092417350754F49F5FF701E20F08
:10138000F31F8083292F30E024173507B4F355204D
:1013900031F0F701E90FF11D8DE280839F5F21E0BD
:1013A0009150F701E90FF11D80812FB9779BFECF96
:1013B0008FB9779BFECF8091620088608093620036
:1013C00080916200877F80936200E5EDEA95F1F7F6
:1013D00000009111E5CF61960FB6F894DEBF0FBE05
:1013E000CDBFDF91CF911F910F91FF90EF90DF90D4
:1013F000CF90BF90AF909F908F907F906F905F90B5
:101400000895D12CCE0101967C0194CF112309F4CB
:10141000BECF712C80E3A8CF22273327281B390B9E
:1014200060CFD394D394F701E90FF11D8DE280834F
:10143000112359F02D2D30E0412F50E024173507AE
:1014400024F49D2D512C80E298CF9D2DA8CF1F9282
:101450000F920FB60F9211240BB60F922F933F935A
:101460008F939F93AF93BF93EF93FF93E09171009E
:101470008E2F90E0FC013897E135F105B0F08091B6
:1014800071008093A90184E080937400FF91EF9133
:10149000BF91AF919F918F913F912F910F900BBE74
:1014A0000F900FBE0F901F901895EA5BFF4F0C94A2
:1014B0000F0C80915F01E091AA01F091AB01E80F60
:1014C000F11D80917300808384E980937400DECFE6
:1014D0008091AC018093730010925F0185E8809346
:1014E0007400D4CF80915F019091AD01891760F7AE
:1014F000E091AA01F091AB0191E0980F90935F0108
:10150000E80FF11D80818093730085E8809374005B
:10151000BDCF85EA80937400B9CF20915F0180919F
:10152000AD0130E090E0019728173907DCF485EC35
:1015300080937400ABCFE091AA01F091AB01809150
:101540005F0121E0280F20935F01E80FF11D8091DA
:10155000730080838091AD0130E090E001972817FF
:1015600039072CF385E88093740090CF8091740044
:10157000817008959091740090FDFCCF8E7F8093D0
:10158000AC017093AB016093AA014093AD0185EA71
:101590008093740008959091740090FDFCCF816059
:1015A0008093AC017093AB016093AA014093AD01AD
:1015B00085EA8093740008958FEF809373001092F2
:1015C00071008CE08093700008958FEF08955D9B0B
:1015D000FECF8CB95D9BFECF0895FC0190819923CD
:1015E00049F031965D9BFECF9CB95D9BFECF9191FA
:1015F0009111F8CF08959C01FC014491442369F0B6
:101600000196F90124915D9BFECF2CB95D9BFECF25
:101610009C01FC0144914111F3CF08958AB188697E
:101620008AB9E5E9F0E080818660808310929000BD
:1016300087E689B9089580E89EE302C0019721F00A
:101640005F9BFCCF8CB1089580E0089587B38760DD
:1016500087BB8DB18C658DB9709A80B7886080BF6B
:1016600087B7836087BF83B7816083BF8FEF81BFF8
:101670008EB58B608EBD10927A0087B7846187BF6C
:1016800080E490E09BBD8ABD85B5896685BD80916B
:101690008B00826880938B0080918A00896180939F
:1016A0008A0010928C008FE990E0909381008093E3
:1016B0008000109289001092880090938700809398
:1016C0008600809161008F77809361008091620035
:1016D0008F778093620087B1876487B986B1876806
:1016E00086B90E94A5040E94DC0A1092AE0141E076
:1016F00060EB71E080E90E94BA0A2FEF81EE94E07E
:10170000215080409040E1F700C000000E940E0B85
:101710000E94B7077894CFEF809160018130F1F19A
:1017200082E391E00E94ED0A809149014AE063E67C
:1017300071E090E00E944E0C83E691E00E94ED0A79
:1017400080E00E94E70A80914001811132C00E942E
:10175000EF040E94DD030E94BB04E4E3F1E080E0BB
:1017600090914101992329F09091360193709093C3
:10177000360191919BBB982F9295907F98BBA7E5DE
:10178000B2E01197F1F700C00000CBBB8F5F85304E
:1017900039F718BA80916001813011F680916701A4
:1017A00080931E018091680180931F011092600157
:1017B000B7CF0E94B800CBCF97FB072E16F400944A
:1017C00007D077FD09D00E94180C07FC05D03EF425
:1017D000909581959F4F0895709561957F4F0895DD
:1017E000052E97FB1EF400940E94070C57FD07D0AE
:1017F0000E942C0C07FC03D04EF40C94070C50955F
:101800004095309521953F4F4F4F5F4F08959095EC
:101810008095709561957F4F8F4F9F4F0895EE0F84
:10182000FF1F0024001C0BBE0790F691E02D0994C9
:10183000AA1BBB1B51E107C0AA1FBB1FA617B707F6
:1018400010F0A61BB70B881F991F5A95A9F7809512
:101850009095BC01CD010895A1E21A2EAA1BBB1BD5
:10186000FD010DC0AA1FBB1FEE1FFF1FA217B3076C
:10187000E407F50720F0A21BB30BE40BF50B661F82
:10188000771F881F991F1A9469F760957095809546
:1018900090959B01AC01BD01CF010895BB274A3053
:1018A00031F4992322F4BDE2909581959F4F0C94D9
:1018B0005A0CBB27FB015527AA27880F991FAA1F7F
:1018C000A41710F0A41B83955051B9F7A05DAA335B
:1018D00008F0A95DA193009779F7B111B193119226
:1018E000CB010C94730CDC01FC01672F7191772301
:1018F000E1F7329704C07C916D9370836291AE17CB
:0A190000BF07C8F30895F894FFCF65
:10190A00C0F9A4B0999282F880908883C6A1868E85
:10191A00FF000500019F4C3A20204320523A202024
:10192A00432020202020416C61726D00202020205D
:04193A002000410048
:00000001FF
