:100000000C9497000C94B6000C94B6000C94B600B7
:100010000C94B6000C94B6000C94B6000C94B60088
:100020000C94B6000C94B6000C94B6000C94B60078
:100030000C9412050C94B6000C94B6000C94B20308
:100040000C947C030C94B6000C94B6000C94B6008F
:100050000C94B6000C94B6000C94B6000C94B60048
:100060000C94B6000C94B6000C94B6000C94B60038
:100070000C94B6000C94B6000C94B6000C94B60028
:100080000C94B6000C94040A0C94B600450A1C0AA1
:100090001C0A1C0A1C0A1C0A1C0A1C0A450A1C0A07
:1000A0001C0A1C0A1C0A1C0A1C0A1C0A4F0A1C0AED
:1000B0001C0A1C0A1C0A1C0A1C0A1C0A1C0A1C0A10
:1000C0001C0A1C0A1C0A1C0A1C0A1C0A4F0A1C0ACD
:1000D0001C0A1C0A1C0A1C0A1C0A1C0A1C0A1C0AF0
:1000E0001C0A1C0A1C0A1C0A1C0A1C0A660A1C0A96
:1000F0001C0A1C0A1C0A1C0A1C0A1C0A6A0A1C0A82
:100100001C0A1C0A1C0A1C0A1C0A1C0A1C0A1C0ABF
:100110001C0A1C0A1C0A1C0A1C0A1C0A780A1C0A53
:100120001C0A1C0A1C0A1C0A1C0A1C0A360A112476
:100130001FBECFEFD0E1DEBFCDBF11E0A0E0B1E048
:10014000E6E0F8E100E00BBF02C007900D92A63395
:10015000B107D9F721E0A6E3B1E001C01D92AD39A6
:10016000B207E1F70E94C30A0C94010C0C94000042
:100170009091470180914A01981721F081E0809386
:100180004201089510924201089587B3876087BBAA
:100190008DB18C658DB9709A089580B7886080BFE5
:1001A00087B7836087BF83B7816083BF8FEF81BFCD
:1001B00008958EB58B608EBD10927A0087B78061EE
:1001C00087BF80E490E09BBD8ABD089585B58966B0
:1001D00085BD0895EBE8F0E0808182688083EAE8DD
:1001E000F0E080818961808310928C008FE990E03B
:1001F0009093810080938000109289001092880073
:10020000909387008093860008951FB8779BFECF58
:100210008FB10895482FE82FF0E099B3EE0FFF1F3C
:10022000E25BFE4F20813181220F331F306E892F18
:1002300090E002C0959587954A95E2F781709927DD
:10024000282B392B3183208381E02115304F09F091
:1002500080E008951ABA8FEF8BBB86B398B380679E
:10026000892B88BBEEE4F1E020E030E061E070E053
:1002700005C02F5F3F4F2830310539F199B34081D8
:100280005181440F551F892F90E0022E02C0959591
:1002900087950A94E2F781709927842B952B906EAD
:1002A000819391938115904F21F7CB01022E02C0CB
:1002B000880F991F0A94E2F79093400180933F01C1
:1002C0002F5F3F4F28303105C9F688B318BA8091A7
:1002D0003F01909140018038910509F479C08091E7
:1002E0003F019091400180349105C9F180913F0117
:1002F00090914001059720F01092400110923F012B
:1003000080913F01909140018130910519F0823038
:10031000910501F540913B0150913C0120913F0135
:10032000309140014217530709F45AC090933C01A1
:1003300080933B011092400110923F018FEF8ABBE6
:1003400080913B0190913C018FB9779BFECFC09A81
:10035000C098089580913B0190913C01E7CF909126
:10036000420181E0911145C08093420180914A0190
:10037000865F80934701809147018D3308F4B6CFA3
:100380009091470189E8989F812D11248295869547
:1003900087702CE3829F90191124909347018091DC
:1003A00046018F5F80934601809146018C3309F0AE
:1003B0009DCF809145018F5F80934501109246014A
:1003C00080914501883109F091CF109245018ECF7F
:1003D0009091430181E0911108C0809343017FCF48
:1003E00010923C0110923B01A5CF80E08093430125
:1003F00076CF80E0B9CF83B113B887EC90E0019756
:10040000F1F700C0000083B18FEF83B982B38F7022
:1004100082BB1FB8779BFECF9FB182B3806F82BB38
:1004200020913B0130913C01822F692F63709C70B9
:100430009695969520913B0130913C01232B09F52F
:1004400020916301462F50E0022E000C330B42171F
:100450005307B9F020916301211126C0613021F5C5
:1004600020911501265F2093150120911501203A56
:1004700008F0E5C02091150130E03093870020930B
:10048000860020913B0130913C0121303105F1F093
:1004900020913B0130913C0122303105B1F1609354
:1004A000630190936201089520916301211103C0BB
:1004B000623009F4AFC020911501209315012091FD
:1004C0003B0130913C012130310511F7209163014E
:1004D000462F50E0022E000C330B4217530709F44D
:1004E0005AC020916301222309F447C0209163017F
:1004F000211103C0623009F480C080E020913B01EB
:1005000030913C012230310551F620916301462F94
:1005100050E0022E000C330B42175307D1F020910C
:100520006301211103C0613009F47CC02091630193
:1005300021111DC06230D9F4209145012150209332
:1005400045012091450127FFAACF27E120934501CE
:10055000A6CF20916201211103C0913009F486C019
:1005600020916201211103C0923009F472C080E031
:1005700060936301909362010895613009F0B6CFF2
:10058000209148012F5F2093480120914801283194
:1005900009F07ECF1CC02091620121111BC0913057
:1005A000C9F4209149012F5F20934901209149010D
:1005B0002C3309F06DCF10924901209148012F5F33
:1005C000209348012091480128310CF461CF10920A
:1005D00048015ECF2091620121118FCF923009F046
:1005E0008CCF20914901215020934901209149014C
:1005F00027FF4ECF2BE32093490120914801215042
:10060000209348012091480127FF42CF27E1209302
:1006100048013ECF209115012A50209315012091C9
:10062000150128CF209145012F5F2093450120918E
:100630004501283109F033CF1092450130CF2FE921
:10064000209315012FE930E0309387002093860036
:1006500018CF209146012150209346012091460158
:1006600027FF1DCF2BE32093460166CF2091460143
:100670002F5F20934601209146012C3309F00FCFC4
:1006800010924601209145012F5F20934501209152
:10069000450128310CF403CFCFCF0E94DF0642E0A2
:1006A0006BE971E080E90E94A80A8FE99FE0019759
:1006B000F1F700C0000080919B0190919C01982768
:1006C000892798274AE064E671E0880F892F881F00
:1006D000990B91950E94CC0BE6E1F1E08CE4808BC4
:1006E0008AE3818BA4E6B1E08C91828B11968C9188
:1006F000838B83E4848B08951F920F920FB60F9221
:1007000011240BB60F922F933F934F935F936F93E8
:100710007F938F939F93AF93BF93EF93FF938091BA
:100720004D018F5F80934D018F7729F480914A01AD
:100730008F5F80934A010E942A010E94FB01FF9172
:10074000EF91BF91AF919F918F917F916F915F9149
:100750004F913F912F910F900BBE0F900FBE0F90B6
:100760001F9018951F920F920FB60F9211240BB67F
:100770000F922F933F934F935F936F937F938F933A
:100780009F93AF93BF93EF93FF9380914C018F5F43
:1007900080934C018F7711F40E944D03FF91EF91EC
:1007A000BF91AF919F918F917F916F915F914F9189
:1007B0003F912F910F900BBE0F900FBE0F901F9087
:1007C000189580914A018C3309F4A4C080913B01B3
:1007D00090913C01029709F45AC09091480187E634
:1007E0009802E12D1124E595E59597FDE3950E2EF0
:1007F000000CFF0BE050FF4F908190933A01E09185
:100800004801E802812D112485958595E7FD8395A2
:100810009AE0899FE01911240E2E000CFF0BE05086
:10082000FF4F80818093390180914A0180FD2BC068
:1008300087E0809338019091490187E69802E12D85
:100840001124E595E59597FDE3950E2E000CFF0B21
:10085000E050FF4F908190933701E0914901E80209
:10086000812D112485958595E7FD83959AE0899FD3
:10087000E01911240E2E000CFF0BE050FF4F808179
:1008800080933601089584E080933801D4CF90910D
:10089000450187E69802E12D1124E595E59597FD40
:1008A000E3950E2E000CFF0BE050FF4F90819093CC
:1008B0003A01E0914501E802812D11248595859545
:1008C000E7FD83959AE0899FE01911240E2E000C14
:1008D000FF0BE050FF4F80818093390180914A01E6
:1008E00080FD33C087E0809338019091460187E610
:1008F0009802E12D1124E595E59597FDE3950E2EDF
:10090000000CFF0BE050FF4F908190933701E09176
:100910004601A5CF809149018F5F809349011092D4
:100920004A01809149018C3309F050CF80914801F0
:100930008F5F80934801109249018091480188316E
:1009400009F044CF1092480141CF84E080933801F0
:10095000CCCF84B38FEF84BB97B3906F97BB92B12A
:100960009F6492B991B381BBA89A92B382BB93B1B1
:1009700083B9089580914301882321F080914B0130
:10098000882349F080914301811104C080914B017B
:100990008130A1F0089581E4809316018CE6809364
:1009A000170181E68093180182E7809319018DE693
:1009B00080931A0181E080934B01089510924B01BE
:1009C00080E2809316018093170180931801809331
:1009D000190180931A010895E1E6F0E080818F7794
:1009E0008083E2E6F0E080818F77808387B187643F
:1009F00087B986B1876886B90895369A349BFECF49
:100A0000449A24B135B136952795369527958FEFC1
:100A100090E0821B930B8C3E910510F08BEE90E0E2
:100A200083BD08951F920F920FB60F9211248F93DA
:100A30009F938091420181110AC0809143018823D4
:100A400031F09091480180914501981739F09F91BC
:100A50008F910F900FBE0F901F90189590914901A4
:100A6000809146019813F3CF90B384E0892782BB2D
:100A7000EECF8091420181110C94B800089510923C
:100A8000990141E06BE971E080E90E94970A8FE3E8
:100A90009FE10197F1F700C00000089591E08111F6
:100AA00001C090E09FB9779BFECF6FB9779BFECFD7
:100AB0008091620088608093620080916200877FED
:100AC00080936200089520915E01820F911DFC01C8
:100AD000808191E09FB9779BFECF8FB9779BFECF46
:100AE0008091620088608093620080916200877FBD
:100AF0008093620080915E018F5F80935E01803100
:100B0000F9F0803209F00895E5EDEA95F1F700007B
:100B10001FB8779BFECF80E88FB9779BFECF80917F
:100B2000620088608093620080916200877F80937A
:100B30006200F5EDFA95F1F7000010925E0108955C
:100B4000F5EDFA95F1F700001FB8779BFECF80EC2A
:100B50008FB9779BFECF809162008860809362009E
:100B600080916200877F8093620085ED8A95F1F71E
:100B7000000080915E01C5CF660F660F660F605C56
:100B80001FB8779BFECF6FB9779BFECF2091620095
:100B900028602093620020916200277F20936200EA
:100BA00025ED2A95F1F70000FC019C01285F3F4FDD
:100BB00091E081919FB9779BFECF8FB9779BFECF54
:100BC0008091620088608093620080916200877FDC
:100BD0008093620085ED8A95F1F70000E217F30734
:100BE00041F7089590E4899F600D1124605C1FB85F
:100BF000779BFECF6FB9779BFECF809162008860B4
:100C00008093620080916200877F809362000895E4
:100C1000811113C081E08FB9779BFECF80E38FB93C
:100C2000779BFECF80916200886080936200809104
:100C30006200877F8093620008958436B0F48A3022
:100C400060F591E09FB9779BFECF9DEC899F912D38
:100C500011249695969596952AE0929F80191124D5
:100C6000805D8FB9779BFECFDDCF99E2899F912D73
:100C7000112492959F70905D21E02FB9779BFECF54
:100C80009FB9779BFECF909162009860909362002D
:100C900090916200977F9093620099E2899F912DD5
:100CA000112492959F70382F24E6929F30191124B9
:100CB0002DEC329F912D1124969596959695905DE9
:100CC00021E02FB9779BFECF9FB9779BFECF909104
:100CD000620098609093620090916200977F909379
:100CE0006200AFCF87FF0C94080691E09FB9779B15
:100CF000FECF9DE29FB9779BFECF909162009860F6
:100D00009093620090916200977F9093620095EDBE
:100D10009A95F1F7000081950C9408061FB8779B0F
:100D2000FECF8EE08FB9779BFECF80916200886006
:100D30008093620080916200877F809362000895B3
:100D40001FB8779BFECF8CE08FB9779BFECF809149
:100D5000620088608093620080916200877F809348
:100D6000620008951FB8779BFECF8EE18FB9779B05
:100D7000FECF809162008860809362008091620063
:100D8000877F8093620008951FB8779BFECF88E12C
:100D90008FB9779BFECF809162008860809362005C
:100DA00080916200877F809362000895E2E6F0E020
:100DB0008081886080838081877F808308951FB8C9
:100DC000779BFECF81E08FB9779BFECF8091620049
:100DD00088608093620080916200877F80936200C8
:100DE0008FE19CE10197F1F700C0000008951FB862
:100DF000779BFECF82E08FB9779BFECF8091620018
:100E000088608093620080916200877F8093620097
:100E10008FE697E10197F1F700C0000008951FB831
:100E2000779BFECF80EC8FB9779BFECF80916200DD
:100E300088608093620080916200877F8093620067
:100E400085ED8A95F1F7000008951FB8779BFECFD6
:100E500080E88FB9779BFECF809162008860809395
:100E6000620080916200877F8093620085ED8A95A1
:100E7000F1F70000089590E131E020E23FB9779B5F
:100E8000FECF2FB9779BFECF809162008860809360
:100E9000620080916200877F8093620085ED8A9571
:100EA000F1F70000915051F7089591E09FB9779BB9
:100EB000FECF8FB9779BFECF8091620088608093D0
:100EC000620080916200877F809362000895FC0138
:100ED00040E050E060E071E0DF01A40FB51F8C91AD
:100EE0007FB9779BFECF8FB9779BFECF9091620041
:100EF00098609093620090916200977F9093620057
:100F000085ED8A95F1F700006F5F462F50E0DF0115
:100F10000D900020E9F79D012E1B3F0B2250310957
:100F200024173507C8F608958FEF99EF0197F1F769
:100F300000C0000088E0809361001FB8779BFECF5F
:100F400080E38FB9779BFECF8091620088608093A9
:100F5000620080916200877F809362008FE59DE64A
:100F60000197F1F700C000001FB8779BFECF80E328
:100F70008FB9779BFECF809162008860809362007A
:100F800080916200877F809362008FE59DE60197E4
:100F9000F1F700C000001FB8779BFECF80E38FB948
:100FA000779BFECF80916200886080936200809181
:100FB0006200877F809362008FE59DE60197F1F7DD
:100FC00000C000001FB8779BFECF88E38FB9779BE6
:100FD000FECF809162008860809362008091620001
:100FE000877F809362008FE19EE40197F1F700C054
:100FF00000001FB8779BFECF88E08FB9779BFECFAC
:101000008091620088608093620080916200877F97
:10101000809362008FE19EE40197F1F700C0000029
:101020001FB8779BFECF81E08FB9779BFECF809171
:10103000620088608093620080916200877F809365
:1010400062008FE19EE40197F1F700C000001FB835
:10105000779BFECF86E08FB9779BFECF80916200B1
:1010600088608093620080916200877F8093620035
:101070008FE19EE40197F1F700C000001FB8779B55
:10108000FECF8CE08FB9779BFECF809162008860A5
:101090008093620080916200877F809362008FE17D
:1010A0009EE40197F1F700C0000008954F925F920F
:1010B0006F927F928F929F92AF92BF92CF92DF9268
:1010C000EF92FF920F931F93CF93DF93CDB7DEB7CD
:1010D00069970FB6F894DEBF0FBECDBF142F422E16
:1010E0005E2C002379F06B017C01CC24F7FCC394C7
:1010F000DD24EE24FF240C2D6B017C0197FDA3C0A1
:10110000C701B601442009F496C09E012F5F3F4FEE
:101110005901490166246A94640C712C3FEF631AEB
:10112000730A6A0C7B1C2AE030E040E050E00E9429
:101130006E0BE62F2A8B3B8B4C8B5D8B6A897B89F0
:101140008C899D8920E32E0FF40121934F016E16A7
:101150007F0649F799249394940CF501E40DF11D51
:101160002EE220832AE030E040E050E00E946E0B47
:10117000E62F2A8B3B8B4C8B5D8B6E8B7F8B888F06
:10118000998F6A897B898C899D8931E0390DD501D8
:10119000A90DB11DE05DEC93932E611571058105DC
:1011A000910501F7112361F051104BC090E2311706
:1011B00038F4F501E30FF11D90833F5F1313F9CF6E
:1011C000002331F0F501E30FF11D9DE290833F5FB5
:1011D00021E03150F501E30FF11D90812FB9779B8C
:1011E000FECF9FB9779BFECF90916200986090935D
:1011F000620090916200977F9093620085ED8A95DE
:10120000F1F700003111E5CF69960FB6F894DEBF13
:101210000FBECDBFDF91CF911F910F91FF90EF9047
:10122000DF90CF90BF90AF909F908F907F906F9006
:101230005F904F900895912C9E012F5F3F4F590171
:1012400091CF90E3B4CFF094E094D094C094C11CBB
:10125000D11CE11CF11C54CF5F926F927F928F9250
:101260009F92AF92BF92CF92DF92EF92FF920F9335
:101270001F93CF93DF93CDB7DEB761970FB6F89486
:10128000DEBF0FBECDBF5C01162F742E6B2C661C0B
:101290006624661C562C9C0197FD9BC0772009F4A0
:1012A0008DC0CE0101967C016C0188248A94870C44
:1012B000912C9FEF891A990A8E0C9F1C6AE070E0AE
:1012C000C9010E945A0B462F242F372F805DF6014B
:1012D00081936F01E815F90589F7DD24D394D70CC4
:1012E000F701E70DF11D8EE2808301C0D92E6AE07F
:1012F00070E0C9010E945A0B462F242F372F91E02E
:101300009D0DF701ED0DF11D805D808321153105E7
:1013100069F7011158C0B7FC61C01123A9F0712C05
:1013200080E2292F30E0412F50E046195709241759
:10133000350754F49F5FF701E20FF31F8083292FD5
:1013400030E024173507B4F3552031F0F701E90FE9
:10135000F11D8DE280839F5F21E09150F701E90F3D
:10136000F11D80812FB9779BFECF8FB9779BFECF80
:101370008091620088608093620080916200877F24
:1013800080936200E5EDEA95F1F700009111E5CF59
:1013900061960FB6F894DEBF0FBECDBFDF91CF913F
:1013A0001F910F91FF90EF90DF90CF90BF90AF9083
:1013B0009F908F907F906F905F900895D12CCE0179
:1013C00001967C0194CF112309F4BECF712C80E3E8
:1013D000A8CF22273327281B390B60CFD394D3946F
:1013E000F701E90FF11D8DE28083112359F02D2DB6
:1013F00030E0412F50E02417350724F49D2D512C67
:1014000080E298CF9D2DA8CF1F920F920FB60F921A
:1014100011240BB60F922F933F938F939F93AF930B
:10142000BF93EF93FF93E09171008E2F90E0FC014A
:101430003897E135F105B0F0809171008093940107
:1014400084E080937400FF91EF91BF91AF919F91E1
:101450008F913F912F910F900BBE0F900FBE0F9069
:101460001F901895EA5BFF4F0C948D0B80915F01E4
:10147000E0919501F0919601E80FF11D80917300C4
:10148000808384E980937400DECF809197018093FC
:10149000730010925F0185E880937400D4CF80912F
:1014A0005F0190919801891760F7E0919501F091A3
:1014B000960191E0980F90935F01E80FF11D8081F4
:1014C0008093730085E880937400BDCF85EA809394
:1014D0007400B9CF20915F018091980130E090E0D5
:1014E000019728173907DCF485EC80937400ABCFA3
:1014F000E0919501F091960180915F0121E0280F24
:1015000020935F01E80FF11D80917300808380912B
:10151000980130E090E00197281739072CF385E80F
:101520008093740090CF80917400817008959091A1
:10153000740090FDFCCF8E7F80939701709396018D
:10154000609395014093980185EA80937400089513
:101550009091740090FDFCCF81608093970170930F
:101560009601609395014093980185EA80937400F9
:1015700008958FEF80937300109271008CE0809338
:1015800070000895089587B3876087BB8DB18C651F
:101590008DB9709A80B7886080BF87B7836087BF36
:1015A00083B7816083BF8FEF81BF8EB58B608EBDA7
:1015B00010927A0087B7806187BF80E490E09BBD7E
:1015C0008ABD85B5896685BD80918B0082688093D0
:1015D0008B0080918A00896180938A0010928C0030
:1015E0008FE990E0909381008093800010928900B1
:1015F0001092880090938700809386000E94A9042F
:10160000809161008F7780936100809162008F7775
:101610008093620087B1876487B986B1876886B98D
:101620000E94B90A1092990141E06BE971E080E9EA
:101630000E94970A8FE39FE10197F1F700C0000035
:101640000E9494077894CFEF86E191E00E946305B1
:101650008091420181112BC00E94FD040E94E10390
:101660000E94BA04E6E3F1E080E0909143019923FF
:1016700029F09091380193709093380191919BBB20
:10168000982F9295907F98BBAFE1B3E01197F1F757
:1016900000C00000CBBB8F5F853039F718BA86E1F8
:1016A00091E00E946305809142018823A9F20E9483
:1016B000B800D2CF97FB072E16F4009407D077FD21
:1016C00009D00E94960B07FC05D03EF490958195B9
:1016D0009F4F0895709561957F4F0895052E97FB54
:1016E0001EF400940E94850B57FD07D00E94AA0BA0
:1016F00007FC03D04EF40C94850B50954095309523
:1017000021953F4F4F4F5F4F08959095809570956D
:1017100061957F4F8F4F9F4F0895EE0FFF1F00245D
:10172000001C0BBE0790F691E02D0994AA1BBB1B71
:1017300051E107C0AA1FBB1FA617B70710F0A61BD1
:10174000B70B881F991F5A95A9F780959095BC01F2
:10175000CD010895A1E21A2EAA1BBB1BFD010DC0ED
:10176000AA1FBB1FEE1FFF1FA217B307E407F50751
:1017700020F0A21BB30BE40BF50B661F771F881F2D
:10178000991F1A9469F760957095809590959B01C3
:10179000AC01BD01CF010895BB274A3031F4992334
:1017A00022F4BDE2909581959F4F0C94D80BBB27F6
:1017B000FB015527AA27880F991FAA1FA41710F00D
:1017C000A41B83955051B9F7A05DAA3308F0A95D19
:1017D000A193009779F7B111B1931192CB010C94B9
:1017E000F10BDC01FC01672F71917723E1F7329750
:1017F00004C07C916D9370836291AE17BF07C8F3EC
:061800000895F894FFCFEB
:10180600C0F9A4B0999282F880908883C6A1868E8A
:10181600FF000500019F20202020202020202020DE
:1018260020202020202020202020202020202020B2
:06183600202020202020EC
:00000001FF
