S00C00006C6162352E73726563B4
S11300000C9497000C94B6000C94B6000C94B600B3
S11300100C94B6000C94B6000C94B6000C94B60084
S11300200C94B6000C94B6000C94B6000C94B60074
S11300300C94F2040C94B6000C94B6000C94B60024
S11300400C944B030C94B6000C94B6000C94B600BC
S11300500C94B6000C94B6000C94B6000C94B60044
S11300600C94B6000C94B6000C94B6000C94B60034
S11300700C94B6000C94B6000C94B6000C94B60024
S11300800C94B6000C94120A0C94B600530A2A0A73
S11300902A0A2A0A2A0A2A0A2A0A2A0A530A2A0A93
S11300A02A0A2A0A2A0A2A0A2A0A2A0A5D0A2A0A79
S11300B02A0A2A0A2A0A2A0A2A0A2A0A2A0A2A0A9C
S11300C02A0A2A0A2A0A2A0A2A0A2A0A5D0A2A0A59
S11300D02A0A2A0A2A0A2A0A2A0A2A0A2A0A2A0A7C
S11300E02A0A2A0A2A0A2A0A2A0A2A0A740A2A0A22
S11300F02A0A2A0A2A0A2A0A2A0A2A0A780A2A0A0E
S11301002A0A2A0A2A0A2A0A2A0A2A0A2A0A2A0A4B
S11301102A0A2A0A2A0A2A0A2A0A2A0A860A2A0ADF
S11301202A0A2A0A2A0A2A0A2A0A2A0A440A112410
S11301301FBECFEFD0E1DEBFCDBF11E0A0E0B1E044
S1130140E2EFF7E100E00BBF02C007900D92AE3280
S1130150B107D9F721E0AEE2B1E001C01D92A239A6
S1130160B207E1F70E94D10A0C94F70B0C9400003B
S113017090913F0180914201981721F081E0809392
S11301803A01089510923A01089587B3876087BBB6
S11301908DB18C658DB9709A089580B7886080BFE1
S11301A087B7816087BF83B7816083BF08958EB5A9
S11301B08B608EBD10927A0087B7806187BF80E420
S11301C090E09BBD8ABD089585B5896685BD089577
S11301D0EBE8F0E0808182688083EAE8F0E08081E7
S11301E08961808310928C008FE990E09093810064
S11301F08093800010928900109288009093870069
S11302008093860008951FB8779BFECF8FB1089521
S1130210482FE82FF0E099B3EE0FFF1FEB5BFE4F82
S113022020813181220F331F306E892F90E002C06C
S1130230959587954A95E2F781709927282B392B54
S11302403183208381E02115304F09F080E0089547
S11302501ABA8FEF8BBB86B398B38067892B88BBA0
S1130260E5E4F1E020E030E061E070E005C02F5FFC
S11302703F4F2830310539F199B340815181440F02
S1130280551F892F90E0022E02C0959587950A94F8
S1130290E2F781709927842B952B906E819391932B
S11302A08115904F21F7CB01022E02C0880F991FB0
S11302B00A94E2F790933801809337012F5F3F4F00
S11302C028303105C9F688B318BA80913701909166
S11302D038018038910509F479C0809137019091F3
S11302E0380180349105C9F180913701909138012A
S11302F0059720F010923801109237018091370150
S1130300909138018130910519F08230910501F501
S113031040913301509134012091370130913801DB
S11303204217530709F45AC0909334018093330160
S113033010923801109237018FEF8ABB80913301FC
S1130340909134018FB9779BFECFC09AC0980895DD
S11303508091330190913401E7CF90913A0181E08B
S1130360911145C080933A0180914201865F809348
S11303703F0180913F018D3308F4B6CF90913F0146
S113038089E8989F812D11248295869587702CE3A6
S1130390829F9019112490933F0180913E018F5FB9
S11303A080933E0180913E018C3309F09DCF809172
S11303B03D018F5F80933D0110923E0180913D018C
S11303C0883109F091CF10923D018ECF90913B017D
S11303D081E0911108C080933B017FCF10923401DA
S11303E010923301A5CF80E080933B0176CF80E06B
S11303F0B9CF83B113B887EC90E00197F1F700C04F
S1130400000083B18FEF83B982B38F7082BB1FB8B2
S1130410779BFECF9FB182B3806F82BB2091330163
S113042030913401822F692F63709C709695969554
S11304302091330130913401232B09F52091580187
S1130440462F50E0022E000C330B42175307B9F02D
S113045020915801211126C0613021F52091150108
S1130460265F2093150120911501203A08F0E5C07C
S11304702091150130E0309387002093860020916D
S113048033013091340121303105F1F020913301F1
S11304903091340122303105B1F1609358019093C9
S11304A05701089520915801211103C0623009F4C5
S11304B0AFC0209115012093150120913301309193
S11304C034012130310511F720915801462F50E0B5
S11304D0022E000C330B4217530709F45AC0209123
S11304E05801222309F447C020915801211103C067
S11304F0623009F480C080E02091330130913401EE
S11305002230310551F620915801462F50E0022E39
S1130510000C330B42175307D1F0209158012111DD
S113052003C0613009F47CC02091580121111DC021
S11305306230D9F420913D01215020933D01209156
S11305403D0127FFAACF27E120933D01A6CF2091AB
S11305505701211103C0913009F486C0209157013D
S1130560211103C0923009F472C080E060935801F5
S1130570909357010895613009F0B6CF209140015E
S11305802F5F2093400120914001283109F07ECF54
S11305901CC02091570121111BC09130C9F4209136
S11305A041012F5F20934101209141012C3309F037
S11305B06DCF10924101209140012F5F20934001A3
S11305C02091400128310CF461CF109240015ECF9C
S11305D02091570121118FCF923009F08CCF2091B7
S11305E041012150209341012091410127FF4ECF29
S11305F02BE320934101209140012150209340019D
S11306002091400127FF42CF27E1209340013ECFB4
S1130610209115012A50209315012091150128CF0E
S113062020913D012F5F20933D0120913D01283110
S113063009F033CF10923D0130CF2FE920931501FB
S11306402FE930E0309387002093860018CF209163
S11306503E01215020933E0120913E0127FF1DCFF2
S11306602BE320933E0166CF20913E012F5F209320
S11306703E0120913E012C3309F00FCF10923E0130
S113068020913D012F5F20933D0120913D012831B0
S11306900CF403CFCFCF1F920F920FB60F921124F9
S11306A00BB60F922F933F934F935F936F937F9368
S11306B08F939F93AF93BF93EF93FF9380914401E4
S11306C08F5F809344018F7729F4809142018F5F7B
S11306D0809342010E9428010E94F901FF91EF9149
S11306E0BF91AF919F918F917F916F915F914F9146
S11306F03F912F910F900BBE0F900FBE0F901F9044
S11307001895809142018C3309F4A4C0809133017F
S113071090913401029709F45AC09091400187E600
S11307209802E12D1124E595E59597FDE3950E2EAC
S1130730000CFF0BE050FF4F908190933201E09149
S11307404001E802812D112485958595E7FD839567
S11307509AE0899FE01911240E2E000CFF0BE05043
S1130760FF4F8081809331018091420180FD2BC035
S113077087E0809330019091410187E69802E12D52
S11307801124E595E59597FDE3950E2E000CFF0BDE
S1130790E050FF4F908190932F01E0914101E802D6
S11307A0812D112485958595E7FD83959AE0899F90
S11307B0E01911240E2E000CFF0BE050FF4F808136
S11307C080932E01089584E080933001D4CF9091DA
S11307D03D0187E69802E12D1124E595E59597FD05
S11307E0E3950E2E000CFF0BE050FF4F9081909389
S11307F03201E0913D01E802812D11248595859512
S1130800E7FD83959AE0899FE01911240E2E000CD0
S1130810FF0BE050FF4F80818093310180914201B2
S113082080FD33C087E08093300190913E0187E6DC
S11308309802E12D1124E595E59597FDE3950E2E9B
S1130840000CFF0BE050FF4F908190932F01E0913B
S11308503E01A5CF809141018F5F809341011092A9
S11308604201809141018C3309F050CF80914001C5
S11308708F5F809340011092410180914001883143
S113088009F044CF1092400141CF84E080933001BD
S1130890CCCF84B38FEF84BB97B3906F97BB92B1E7
S11308A09F6492B991B381BBA89A92B382BB93B16E
S11308B083B908950F9380913B018823C1F18091FE
S11308C04301811134C080913D018A302CF0809124
S11308D03E018A300CF05DC080913D018A30A4F560
S11308E080913E018A300CF451C084E291E00E9470
S11308F0750780913D0100E020E040E062E0082EB1
S1130900000C990B0E943A0980E291E00E9475075D
S113091080913E0120E040E062E0082E000C990B3B
S11309200E943A0981E0809343010F9108958091D8
S11309303B018111FACF809143018130B1F71092CC
S113094043010F910C94ED0686E191E00E94750736
S113095080913D0100E020E040E062E0082E000CC0
S1130960990B0E943A0980E291E00E94750782E2A5
S113097091E00E94750780913E0120E040E061E033
S1130980082E000C990B0E943A09CCCF84E291E026
S1130990DDCF86E191E0ABCFE1E6F0E080818F77B7
S11309A08083E2E6F0E080818F77808387B187647B
S11309B087B986B1876886B90895369A349BFECF85
S11309C0449A24B135B136952795369527958FEFFE
S11309D090E0821B930B8C3E910510F08BEE90E01F
S11309E083BD08951F920F920FB60F9211248F9317
S11309F09F9380913A0181110AC080913B01882321
S1130A0031F09091400180913D01981739F09F9108
S1130A108F910F900FBE0F901F90189590914101E8
S1130A2080913E019813F3CF90B384E0892782BB71
S1130A30EECF80913A0181110C94B8000895109280
S1130A408E0141E060E971E080E90E94A50A8FE32C
S1130A509FE10197F1F700C000000E94ED069FEFAF
S1130A6021EE84E0915020408040E1F700C0000076
S1130A700E94ED0642E060E971E080E90E94B60A56
S1130A808FE39FE10197F1F700C00000809190018E
S1130A90909191019827892798274AE069E571E0A8
S1130AA0880F892F881F990B91950E94C20B89E5A5
S1130AB091E00E947507D3CF91E0811101C090E0CD
S1130AC09FB9779BFECF6FB9779BFECF8091620071
S1130AD088608093620080916200877F80936200C7
S1130AE0089520915501820F911DFC01808191E0B0
S1130AF09FB9779BFECF8FB9779BFECF8091620021
S1130B0088608093620080916200877F8093620096
S1130B10809155018F5F809355018031F9F08032C7
S1130B2009F00895E5EDEA95F1F700001FB8779B09
S1130B30FECF80E88FB9779BFECF809162008860FA
S1130B408093620080916200877F80936200F5ED5C
S1130B50FA95F1F70000109255010895F5EDFA9514
S1130B60F1F700001FB8779BFECF80EC8FB9779B1D
S1130B70FECF809162008860809362008091620061
S1130B80877F8093620085ED8A95F1F7000080915C
S1130B905501C5CF660F660F660F605C1FB8779B63
S1130BA0FECF6FB9779BFECF20916200286020931F
S1130BB0620020916200277F2093620025ED2A9530
S1130BC0F1F70000FC019C01285F3F4F91E0819107
S1130BD09FB9779BFECF8FB9779BFECF8091620040
S1130BE088608093620080916200877F80936200B6
S1130BF085ED8A95F1F70000E217F30741F70895B0
S1130C0090E4899F600D1124605C1FB8779BFECF30
S1130C106FB9779BFECF80916200886080936200F9
S1130C2080916200877F809362000895811113C0D0
S1130C3081E08FB9779BFECF80E38FB9779BFECF9E
S1130C408091620088608093620080916200877F57
S1130C508093620008958436B0F48A3060F591E0A0
S1130C609FB9779BFECF9DEC899F912D112496957A
S1130C70969596952AE0929F80191124805D8FB9EC
S1130C80779BFECFDDCF99E2899F912D1124929518
S1130C909F70905D21E02FB9779BFECF9FB9779B22
S1130CA0FECF9091620098609093620090916200F0
S1130CB0977F9093620099E2899F912D11249295D8
S1130CC09F70382F24E6929F301911242DEC329F07
S1130CD0912D1124969596959695905D21E02FB9C6
S1130CE0779BFECF9FB9779BFECF9091620098606F
S1130CF09093620090916200977F90936200AFCFCF
S1130D0087FF0C94160691E09FB9779BFECF9DE276
S1130D109FB9779BFECF9091620098609093620098
S1130D2090916200977F9093620095ED9A95F1F708
S1130D30000081950C9416061FB8779BFECF8EE0B9
S1130D408FB9779BFECF80916200886080936200A8
S1130D5080916200877F8093620008951FB8779B1B
S1130D60FECF8CE08FB9779BFECF809162008860C4
S1130D708093620080916200877F8093620008956F
S1130D801FB8779BFECF8EE18FB9779BFECF809102
S1130D90620088608093620080916200877F809304
S1130DA0620008951FB8779BFECF88E18FB9779BC7
S1130DB0FECF80916200886080936200809162001F
S1130DC0877F809362000895E2E6F0E08081886086
S1130DD080838081877F808308951FB8779BFECFAF
S1130DE081E08FB9779BFECF809162008860809309
S1130DF0620080916200877F809362008FE19CE1B2
S1130E000197F1F700C0000008951FB8779BFECF4B
S1130E1082E08FB9779BFECF8091620088608093D7
S1130E20620080916200877F809362008FE697E181
S1130E300197F1F700C0000008951FB8779BFECF1B
S1130E4080EC8FB9779BFECF80916200886080939D
S1130E50620080916200877F8093620085ED8A95AD
S1130E60F1F7000008951FB8779BFECF80E88FB993
S1130E70779BFECF809162008860809362008091AE
S1130E806200877F8093620085ED8A95F1F7000008
S1130E90089590E131E020E23FB9779BFECF2FB96E
S1130EA0779BFECF8091620088608093620080917E
S1130EB06200877F8093620085ED8A95F1F70000D8
S1130EC0915051F7089591E09FB9779BFECF8FB968
S1130ED0779BFECF8091620088608093620080914E
S1130EE06200877F809362000895FC0140E050E037
S1130EF060E071E0DF01A40FB51F8C917FB9779B8F
S1130F00FECF8FB9779BFECF90916200986090934B
S1130F10620090916200977F9093620085ED8A95BC
S1130F20F1F700006F5F462F50E0DF010D900020C5
S1130F30E9F79D012E1B3F0B225031092417350779
S1130F40C8F608958FEF99EF0197F1F700C00000FC
S1130F5088E0809361001FB8779BFECF80E38FB950
S1130F60779BFECF809162008860809362008091BD
S1130F706200877F809362008FE59DE60197F1F719
S1130F8000C000001FB8779BFECF80E38FB9779B2A
S1130F90FECF80916200886080936200809162003D
S1130FA0877F809362008FE59DE60197F1F700C08B
S1130FB000001FB8779BFECF80E38FB9779BFECFED
S1130FC08091620088608093620080916200877FD4
S1130FD0809362008FE59DE60197F1F700C0000061
S1130FE01FB8779BFECF88E38FB9779BFECF8091A4
S1130FF0620088608093620080916200877F8093A2
S113100062008FE19EE40197F1F700C000001FB871
S1131010779BFECF88E08FB9779BFECF80916200EB
S113102088608093620080916200877F8093620071
S11310308FE19EE40197F1F700C000001FB8779B91
S1131040FECF81E08FB9779BFECF809162008860EC
S11310508093620080916200877F809362008FE1B9
S11310609EE40197F1F700C000001FB8779BFECF04
S113107086E08FB9779BFECF809162008860809371
S1131080620080916200877F809362008FE19EE41A
S11310900197F1F700C000001FB8779BFECF8CE0EA
S11310A08FB9779BFECF8091620088608093620045
S11310B080916200877F809362008FE19EE40197B4
S11310C0F1F700C0000008954F925F926F927F92F3
S11310D08F929F92AF92BF92CF92DF92EF92FF9244
S11310E00F931F93CF93DF93CDB7DEB769970FB6F6
S11310F0F894DEBF0FBECDBF142F422E5E2C00230A
S113110079F06B017C01CC24F7FCC394DD24EE243C
S1131110FF240C2D6B017C0197FDA3C0C701B60110
S1131120442009F496C09E012F5F3F4F59014901A5
S113113066246A94640C712C3FEF631A730A6A0C78
S11311407B1C2AE030E040E050E00E94640BE62F74
S11311502A8B3B8B4C8B5D8B6A897B898C899D891F
S113116020E32E0FF40121934F016E167F0649F7F9
S113117099249394940CF501E40DF11D2EE220833F
S11311802AE030E040E050E00E94640BE62F2A8B16
S11311903B8B4C8B5D8B6E8B7F8B888F998F6A8991
S11311A07B898C899D8931E0390DD501A90DB11D4B
S11311B0E05DEC93932E611571058105910501F7AE
S11311C0112361F051104BC090E2311738F4F5014E
S11311D0E30FF11D90833F5F1313F9CF002331F028
S11311E0F501E30FF11D9DE290833F5F21E0315053
S11311F0F501E30FF11D90812FB9779BFECF9FB9C5
S1131200779BFECF909162009860909362009091DA
S11312106200977F9093620085ED8A95F1F7000054
S11312203111E5CF69960FB6F894DEBF0FBECDBF7E
S1131230DF91CF911F910F91FF90EF90DF90CF90AE
S1131240BF90AF909F908F907F906F905F904F90E2
S11312500895912C9E012F5F3F4F590191CF90E348
S1131260B4CFF094E094D094C094C11CD11CE11C80
S1131270F11C54CF5F926F927F928F929F92AF92A4
S1131280BF92CF92DF92EF92FF920F931F93CF936F
S1131290DF93CDB7DEB761970FB6F894DEBF0FBE0C
S11312A0CDBF5C01162F742E6B2C661C6624661C45
S11312B0562C9C0197FD9BC0772009F48DC0CE016C
S11312C001967C016C0188248A94870C912C9FEFF1
S11312D0891A990A8E0C9F1C6AE070E0C9010E9469
S11312E0500B462F242F372F805DF60181936F0119
S11312F0E815F90589F7DD24D394D70CF701E70D38
S1131300F11D8EE2808301C0D92E6AE070E0C9012C
S11313100E94500B462F242F372F91E09D0DF7018B
S1131320ED0DF11D805D80832115310569F70111F3
S113133058C0B7FC61C01123A9F0712C80E2292F99
S113134030E0412F50E0461957092417350754F46B
S11313509F5FF701E20FF31F8083292F30E02417EA
S11313603507B4F3552031F0F701E90FF11D8DE293
S113137080839F5F21E09150F701E90FF11D808187
S11313802FB9779BFECF8FB9779BFECF80916200F8
S113139088608093620080916200877F80936200FE
S11313A0E5EDEA95F1F700009111E5CF61960FB6EE
S11313B0F894DEBF0FBECDBFDF91CF911F910F9187
S11313C0FF90EF90DF90CF90BF90AF909F908F9061
S11313D07F906F905F900895D12CCE0101967C018F
S11313E094CF112309F4BECF712C80E3A8CF222718
S11313F03327281B390B60CFD394D394F701E90F1B
S1131400F11D8DE28083112359F02D2D30E0412F01
S113141050E02417350724F49D2D512C80E298CFF9
S11314209D2DA8CF1F920F920FB60F9211240BB6C9
S11314300F922F933F938F939F93AF93BF93EF9309
S1131440FF93E09171008E2F90E0FC013897E13515
S1131450F105B0F0809171008093890184E080935C
S11314607400FF91EF91BF91AF919F918F913F9144
S11314702F910F900BBE0F900FBE0F901F901895D9
S1131480EA5BFF4F0C94830B80915601E0918A0133
S1131490F0918B01E80FF11D80917300808384E942
S11314A080937400DECF80918C018093730010923E
S11314B0560185E880937400D4CF809156019091B1
S11314C08D01891760F7E0918A01F0918B0191E019
S11314D0980F90935601E80FF11D8081809373005B
S11314E085E880937400BDCF85EA80937400B9CFFA
S11314F02091560180918D0130E090E001972817EA
S11315003907DCF485EC80937400ABCFE0918A0159
S1131510F0918B018091560121E0280F2093560110
S1131520E80FF11D80917300808380918D0130E07C
S113153090E00197281739072CF385E8809374000D
S113154090CF80917400817008959091740090FD03
S1131550FCCF8E7F80938C0170938B0160938A0102
S113156040938D0185EA80937400089590917400EE
S113157090FDFCCF816080938C0170938B0160930C
S11315808A0140938D0185EA8093740008958FEF5A
S113159080937300109271008CE080937000089522
S11315A0089587B3876087BB8DB18C658DB9709AB8
S11315B080B7886080BF87B7816087BF83B7816049
S11315C083BF8EB58B608EBD10927A0087B7806121
S11315D087BF80E490E09BBD8ABD85B5896685BDE3
S11315E080918B00826880938B0080918A0089614E
S11315F080938A0010928C008FE990E09093810090
S11316008093800010928900109288009093870044
S1131610809386000E944904809161008F778093B3
S11316206100809162008F778093620087B1876444
S113163087B986B1876886B90E94C70A0E94A20743
S11316407894CFEF80913A01811127C00E94DD0484
S11316500E9481030E945A04EEE2F1E080E090913E
S11316603B01992329F090913001937090933001BC
S113167091919BBB982F9295907F98BBAFE1B3E07B
S11316801197F1F700C00000CBBB8F5F853039F7AD
S113169018BA80913A018823C9F20E94B800D6CFC3
S11316A097FB072E16F4009407D077FD09D00E940B
S11316B08C0B07FC05D03EF4909581959F4F0895BF
S11316C0709561957F4F0895052E97FB1EF4009445
S11316D00E947B0B57FD07D00E94A00B07FC03D090
S11316E04EF40C947B0B50954095309521953F4FCB
S11316F04F4F5F4F089590958095709561957F4FFA
S11317008F4F9F4F0895EE0FFF1F0024001C0BBE48
S11317100790F691E02D0994AA1BBB1B51E107C069
S1131720AA1FBB1FA617B70710F0A61BB70B881F6D
S1131730991F5A95A9F780959095BC01CD010895FC
S1131740A1E21A2EAA1BBB1BFD010DC0AA1FBB1FC1
S1131750EE1FFF1FA217B307E407F50720F0A21B33
S1131760B30BE40BF50B661F771F881F991F1A94A0
S113177069F760957095809590959B01AC01BD01CA
S1131780CF010895BB274A3031F4992322F4BDE2F6
S1131790909581959F4F0C94CE0BBB27FB01552749
S11317A0AA27880F991FAA1FA41710F0A41B8395BA
S11317B05051B9F7A05DAA3308F0A95DA193009731
S11317C079F7B111B1931192CB010C94E70BDC01C1
S11317D0FC01672F71917723E1F7329704C07C9164
S11317E06D9370836291AE17BF07C8F30895F894A0
S10517F0FFCF25
S11317F2C0F9A4B0999282F880908883C6A1868E9B
S1131802FF000500019F414C41524D2061742000AC
S11118123A003000414C41524D2061740000F8
S9030000FC
