:100000000C9446000C9465000C9465000C946500FB
:100010000C9465000C9465000C9465000C946500CC
:100020000C9465000C9465000C9465000C946500BC
:100030000C9465000C9465000C9465000C946500AC
:100040000C9465000C9465000C9465000C9465009C
:100050000C9465000C9465000C9465000C9465008C
:100060000C9465000C9465000C9465000C9465007C
:100070000C9465000C9465000C9465000C9465006C
:100080000C9465000C9465000C94650011241FBE4F
:10009000CFEFD0E1DEBFCDBF11E0A0E0B1E0E0E402
:1000A000F3E000E00BBF02C007900D92AC30B10747
:1000B000D9F721E0ACE0B1E001C01D92A132B20756
:1000C000E1F70E9434010C949E010C940000482F2B
:1000D000E82FF0E099B3EE0FFF1FEF5EFE4F208197
:1000E0003181220F331F306E892F90E002C0959529
:1000F00087954A95E2F781709927282B392B318310
:10010000208381E02115304F09F080E00895CF93DE
:10011000AC019C01ADECBCEC0E948F0196958795DB
:1001200096958795969587959C01220F331F880F8A
:10013000991F880F991F880F991F820F931FFA012B
:10014000E81BF90BE050FF4F808180930C019A016E
:100150003695279536952795ABE7B4E10E948F0138
:10016000FC01F695E79524E62E9FC0012F9F900D88
:1001700011249A01281B390BADECBCEC0E948F01B5
:10018000969587959695879596958795DC01A050CD
:10019000BF4F8C9180930D01CFEFC0930E019F0153
:1001A000ADECBCEC0E948F0196958795969587954E
:1001B000969587959C01220F331F880F991F880FF2
:1001C000991F880F991F820F931FE81BF90BE050AE
:1001D000FF4F808180930F01483E83E0580790F4E1
:1001E000C09310014436510558F4C0930F014A30B2
:1001F000510530F4C0930D01452B11F4C0930C014F
:10020000CF9108959A01369527953695279536957D
:100210002795A5ECB0E20E948F01AC015295429562
:100220004F7045275F7045279A01ADECBCEC0E94EA
:100230008F019695879596958795969587959C01BC
:10024000220F331F880F991F880F991F880F991F3E
:10025000820F931F481B590BFA01E050FF4F80811A
:1002600080931001CF91089580EF87BBC0E0D0E06C
:10027000FF24FA9401E010E08FE39FE10197F1F78A
:1002800000C000001ABAFBBA86B3806788BBE1E100
:10029000F1E020E030E005C02F5F3F4F283031050E
:1002A00029F199B340815181440F551F892F90E066
:1002B000022E02C0959587950A94E2F781709927DE
:1002C000842B952B906E819391938115904F21F7FC
:1002D000C801022E02C0880F991F0A94E2F7C80FC6
:1002E000D91F2F5F3F4F28303105D9F618BAD37088
:1002F000CE010E948700FABAECE0F1E080E0919133
:100300009BBB982F9295907F98BBAFE9BFE0119768
:10031000F1F700C000008F5F853089F7ADCFA29F55
:10032000B001B39FC001A39F700D811D1124911DC9
:10033000B29F700D811D1124911D0895F894FFCF77
:0C034000C0F9A4B0999282F88090FF00F0
:00000001FF
