:100000000C9446000C9465000C9465000C946500FB
:100010000C9465000C9465000C9465000C946500CC
:100020000C9465000C9465000C9465000C946500BC
:100030000C9465000C9465000C9465000C946500AC
:100040000C94BF010C9465000C9465000C94650041
:100050000C9465000C9465000C9465000C9465008C
:100060000C9465000C9465000C9465000C9465007C
:100070000C9465000C9465000C9465000C9465006C
:100080000C9465000C9465000C94650011241FBE4F
:10009000CFEFD0E1DEBFCDBF11E0A0E0B1E0EEE0F8
:1000A000F5E000E00BBF02C007900D92AE30B10743
:1000B000D9F721E0AEE0B1E001C01D92A732B2074E
:1000C000E1F70E9417020C9485020C94000087B39C
:1000D000876087BB8DB18C658DB9709A08951FB804
:1000E000779BFECF8FB10895482FE82FF0E099B3AA
:1000F000EE0FFF1FEB5EFE4F20813181220F331F79
:10010000306E892F90E002C0959587954A95E2F769
:1001100081709927282B392B3183208381E0211589
:10012000304F09F080E00895CF93AC019C01ADEC15
:10013000BCEC0E9462029695879596958795969558
:1001400087959C01220F331F880F991F880F991FD5
:10015000880F991F820F931FFA01E81BF90BE050DB
:10016000FF4F808180930E019A0136952795369531
:100170002795ABE7B4E10E946202FC01F695E79592
:1001800024E62E9FC0012F9F900D11249A01281B59
:10019000390BADECBCEC0E94620296958795969562
:1001A000879596958795DC01A050BF4F8C918093E1
:1001B0000F01CFEFC09310019F01ADECBCEC0E948A
:1001C00062029695879596958795969587959C0159
:1001D000220F331F880F991F880F991F880F991FAF
:1001E000820F931FE81BF90BE050FF4F8081809333
:1001F0001101483E83E0580770F4C0931201443661
:10020000510538F4C09311014A30510510F4C093E0
:100210000F01CF9108959A01369527953695279528
:1002200036952795A5ECB0E20E946202AC0152958A
:1002300042954F7045275F7045279A01ADECBCECA5
:100240000E946202969587959695879596958795D3
:100250009C01220F331F880F991F880F991F880F49
:10026000991F820F931F481B590BFA01E050FF4F53
:10027000808180931201CF9108951ABA8FEF8BBBC2
:1002800086B398B38067892B88BBE5E1F1E041E054
:1002900060E070E005C06F5F7F4F4F5F4930F1F065
:1002A00099B320813181220F331F892F90E0062ED0
:1002B00002C0959587950A94E2F781709927822B61
:1002C000932B906E819391938115904F21F74093DA
:1002D0000C016F5F7F4F4F5F493011F78FEF8ABB83
:1002E00080910C018FB9779BFECFC09AC09808957A
:1002F00083B113B887EC90E00197F1F700C00000DC
:1003000083B18FEF83B982B312BA1FB8779BFECF48
:100310009FB1919A80910C01492F43709C709695E2
:10032000969520912601642F70E0022E000C330B6D
:100330006217730791F020912601211102C041300C
:1003400039F020912601211102C0423091F080E065
:1003500040932601909325010895209125012111B4
:1003600002C09130A9F3209125012111F0CF9230E4
:1003700071F78195409326019093250108951F926E
:100380000F920FB60F9211240BB60F922F933F933B
:100390004F935F936F937F938F939F93AF93BF938D
:1003A000EF93FF930E943D010E9478012091130179
:1003B00030911401280F311D87FD3A9530931401B7
:1003C00020931301809113019091140181159440A1
:1003D00064F080911301909114016FEF73E00E941B
:1003E0004E02909314018093130180911301909118
:1003F000140197FF09C080911301909114019C5F33
:100400009093140180931301FF91EF91BF91AF91ED
:100410009F918F917F916F915F914F913F912F911C
:100420000F900BBE0F900FBE0F901F90189587B7BF
:10043000816087BF83B7856083BF84B39FEF94BB20
:1004400087B3806F87BB169A81B38B6081BB85B3FE
:1004500085BB919A83B193B987B3876087BB8DB110
:100460008C658DB9709A78948091130190911401E4
:100470000E949400EEE0F1E080E091919BBB982F08
:100480009295907F98BBAFEAB4E01197F1F700C066
:1004900000008F5F853089F718BAE6CF97FB072EEB
:1004A00016F4009407D077FD09D00E94710207FC72
:1004B00005D03EF4909581959F4F08957095619574
:1004C0007F4F0895A29FB001B39FC001A39F700DFD
:1004D000811D1124911DB29F700D811D1124911D4C
:1004E0000895AA1BBB1B51E107C0AA1FBB1FA6177B
:1004F000B70710F0A61BB70B881F991F5A95A9F7CD
:0E05000080959095BC01CD010895F894FFCF31
:0E050E00C0F9A4B0999282F88090FF0001001D
:00000001FF
