S0160000696E74657272757074735F5350492E7372656363
S11300000C9446000C9465000C9465000C946500F7
S11300100C9465000C9465000C9465000C946500C8
S11300200C9465000C9465000C9465000C946500B8
S11300300C9465000C9465000C9465000C946500A8
S11300400C944E020C9465000C9465000C946500AD
S11300500C9465000C9465000C9465000C94650088
S11300600C9465000C9465000C9465000C94650078
S11300700C9465000C9465000C9465000C94650068
S11300800C9465000C9465000C94650011241FBE4B
S1130090CFEFD0E1DEBFCDBF11E0A0E0B1E0E6E6F6
S11300A0F6E000E00BBF02C007900D92A631B10745
S11300B0D9F721E0A6E1B1E001C01D92A233B20755
S11300C0E1F70E94A3020C9431030C940000CF9337
S11300D0AC019C01ADECBCEC0E940E039695879597
S11300E096958795969587959C01220F331F880FC7
S11300F0991F880F991F880F991F820F931FFA0168
S1130100E81BF90BE050FF4F8081809316019A01A0
S11301103695279536952795ABE7B4E10E940E03F3
S1130120FC01F695E79524E62E9FC0012F9F900DC4
S113013011249A01281B390BADECBCEC0E940E0370
S1130140969587959695879596958795DC01A05009
S1130150BF4F8C9180931701CFEFC09318019F017B
S1130160ADECBCEC0E940E03969587959695879509
S1130170969587959C01220F331F880F991F880F2E
S1130180991F880F991F820F931FE81BF90BE050EA
S1130190FF4F808180931901483E83E0580770F433
S11301A0C0931A014436510538F4C09319014A30FA
S11301B0510510F4C0931701CF9108959A01369513
S11301C027953695279536952795A5ECB0E20E949C
S11301D00E03AC01529542954F7045275F70452739
S11301E09A01ADECBCEC0E940E039695879596950A
S11301F08795969587959C01220F331F880F991F29
S1130200880F991F880F991F820F931F481B590B42
S1130210FA01E050FF4F808180931A01CF91089535
S113022087B3876087BB8DB18C658DB9709A08954B
S11302301FB8779BFECF8FB10895482FE82FF0E0C9
S113024099B3EE0FFF1FE05EFE4F20813181220F34
S1130250331F306E892F90E002C0959587954A959B
S1130260E2F781709927282B392B3183208381E091
S11302702115304F09F080E0089520911F012111CC
S113028002C00C94670008951ABA8FEF8BBB86B333
S113029098B38067892B88BBE0E2F1E020E030E08E
S11302A061E070E005C02F5F3F4F2830310539F120
S11302B099B340815181440F551F892F90E0022E3C
S11302C002C0959587950A94E2F781709927842B4B
S11302D0952B906E819391938115904F21F7CB01CB
S11302E0022E02C0880F991F0A94E2F790931E0110
S11302F080931D012F5F3F4F28303105C9F680914F
S11303001D0190911E018038910509F440C080912F
S11303101D0190911E01059720F010921E0110926C
S11303201D0180911D0190911E018230910509F4F7
S11303304EC08430910599F181309105C1F08091CE
S1130340140190911501909315018093140110925A
S11303501E0110921D018FEF8ABB809114019091B0
S113036015018FB9779BFECFC09AC098089540912C
S113037014015091150120911D0130911E01421765
S1130380530709F71092150110921401E0CF9091D0
S11303901F0181E0911133C080931F01B8CF2091D8
S11303A014013091150180911D0190911E012817AF
S11303B0390731F08091140190911501019711F7DB
S11303C084E090E09093150180931401C0CF2091B4
S11303D014013091150180911D0190911E0128177F
S11303E0390731F08091140190911501019751F66C
S11303F082E090E09093150180931401A8CF80E0EF
S113040080931F0184CF83B113B887EC90E00197E8
S1130410F1F700C0000083B18FEF83B982B312BA41
S11304201FB8779BFECF9FB1919A60911401709190
S11304301501862F492F43709C70969596952091AF
S11304403101E42FF0E0022E000C330BE217F30726
S113045091F020913101211102C0413039F0809195
S11304603101811102C0423091F080E040933101AA
S113047090933001089520913001211102C09130F0
S1130480A9F3809130018111F0CF923071F7862F5A
S11304908195409331019093300108951F920F92FA
S11304A00FB60F9211240BB60F922F933F934F93D5
S11304B05F936F937F938F939F93AF93BF93EF93C8
S11304C0FF930E9444010E94030220911B0130917A
S11304D01C01280F311D87FD3A9530931C01209390
S11304E01B0180911B0190911C018115944064F0C3
S11304F080911B0190911C016FEF73E00E94FA023E
S113050090931C0180931B0180911B0190911C010D
S113051097FF06C08FEF93E090931C0180931B011B
S1130520FF91EF91BF91AF919F918F917F916F91C7
S11305305F914F913F912F910F900BBE0F900FBE83
S11305400F901F90189587B7816087BF83B7856028
S113055083BF84B39FEF94BB87B3806F87BB169A26
S113056081B38B6081BB85B385BB919A83B193B909
S113057087B3876087BB8DB18C658DB9709A789489
S1130580D3E0C0E220911B0130911C0190911F0126
S1130590992361F1E6E1F1E021E030E080E090E0D0
S11305A015C040911F0140814BBB482F4295407FAD
S11305B048BBAFEAB4E01197F1F700C00000253062
S11305C0310501F301962F5F3F4F3196823091053B
S11305D041F740911F01442321F3DBBBC8BBAFEAC1
S11305E0B4E01197F1F700C00000ECCFC9010E94FC
S11305F06700D0CF97FB072E16F4009407D077FD41
S113060009D00E941D0307FC05D03EF49095819506
S11306109F4F0895709561957F4F0895A29FB001F3
S1130620B39FC001A39F700D811D1124911DB29F22
S1130630700D811D1124911D0895AA1BBB1B51E14E
S113064007C0AA1FBB1FA617B70710F0A61BB70B3E
S1130650881F991F5A95A9F780959095BC01CD01E3
S10906600895F894FFCF99
S1130666C0F9A4B0999282F8809088E0B1C2B0B87B
S1090676FF000500010075
S9030000FC
