:100000000C9497000C94B6000C94B6000C94B600B7
:100010000C94B6000C94B6000C94B6000C94B60088
:100020000C94CA060C94B6000C94B6000C94B6005E
:100030000C948B060C94B6000C94B6000C945604E9
:100040000C9420040C94B6000C9403070C94B60096
:100050000C94B6000C94B6000C94B6000C94B60048
:100060000C94B6000C94B6000C94B6000C94B60038
:100070000C94B6000C94B6000C94B6000C94B60028
:100080000C94B6000C94E70B0C94B600280CFF0BF4
:10009000FF0BFF0BFF0BFF0BFF0BFF0B280CFF0BE6
:1000A000FF0BFF0BFF0BFF0BFF0BFF0B320CFF0BCC
:1000B000FF0BFF0BFF0BFF0BFF0BFF0BFF0BFF0BF0
:1000C000FF0BFF0BFF0BFF0BFF0BFF0B320CFF0BAC
:1000D000FF0BFF0BFF0BFF0BFF0BFF0BFF0BFF0BD0
:1000E000FF0BFF0BFF0BFF0BFF0BFF0B490CFF0B75
:1000F000FF0BFF0BFF0BFF0BFF0BFF0B4D0CFF0B61
:10010000FF0BFF0BFF0BFF0BFF0BFF0BFF0BFF0B9F
:10011000FF0BFF0BFF0BFF0BFF0BFF0B5B0CFF0B32
:10012000FF0BFF0BFF0BFF0BFF0BFF0B190C112439
:100130001FBECFEFD0E1DEBFCDBF11E0A0E0B1E048
:10014000ECE0F1E200E00BBF02C007900D92AE338D
:10015000B107D9F722E0AEE3B1E001C01D92AB34A4
:10016000B207E1F70E94B00E0C9484100C940000CA
:1001700090914F0180915201981721F081E0809376
:100180004801089510924801089587B3876087BB9E
:100190008DB18C658DB9709A089580B7886080BFE5
:1001A00087B7836087BF83B7816083BF8FEF81BFCD
:1001B00008958EB58B608EBD10927A0087B78461EA
:1001C00087BF80E490E09BBD8ABD089585B58966B0
:1001D00085BD0895EBE8F0E0808182688083EAE8DD
:1001E000F0E080818961808310928C008FE990E03B
:1001F0009093810080938000109289001092880073
:10020000909387008093860008951FB8779BFECF58
:100210008FB10895482FE82FF0E099B3EE0FFF1F3C
:10022000E65AFE4F20813181220F331F306E892F15
:1002300090E002C0959587954A95E2F781709927DD
:10024000282B392B3183208381E02115304F09F091
:1002500080E008951ABA8FEF8BBB86B398B380679E
:10026000892B88BBEAE5F1E020E030E061E070E056
:1002700005C02F5F3F4F2830310539F199B34081D8
:100280005181440F551F892F90E0022E02C0959591
:1002900087950A94E2F781709927842B952B906EAD
:1002A000819391938115904F21F7CB01022E02C0CB
:1002B000880F991F0A94E2F79093460180934501B5
:1002C0002F5F3F4F28303105C9F688B318BA8091A7
:1002D0004501909146018038910509F4B7C080919D
:1002E0004501909146018034910509F476C08091D2
:1002F000450190914601809709F461C080914501C4
:1003000090914601409709F446C080914501909133
:1003100046010897E1F180914501909146010597CA
:1003200020F0109246011092450180914501909174
:1003300046018230910559F08430910541F08130B9
:10034000910529F080914301909144010CC04091A6
:1003500043015091440120914501309146014217DB
:10036000530709F47BC0909344018093430110929A
:100370004601109245018FEF8ABB80914301909115
:1003800044018FB9779BFECFC09AC098089581E051
:1003900080934701C0CF80911401909115019093F3
:1003A0002801809327018091140190911501909369
:1003B00013018093120181E080934A01A6CF82E766
:1003C00094E29093280180932701909313018093E6
:1003D000120181E080934A0191CF9091480181E020
:1003E000911145C08093480180915201865F8093AE
:1003F0004F0180914F018D3308F479CF90914F01D7
:1004000089E8989F812D11248295869587702CE329
:10041000829F9019112490934F0180914E018F5F1C
:1004200080934E0180914E018C3309F060CF809112
:100430004D018F5F80934D0110924E0180914D01CF
:10044000883109F054CF10924D0151CF909149015C
:1004500081E0911108C08093490141CF109244017D
:100460001092430184CF80E08093490138CF80E02F
:10047000B9CF1E9887EC90E00197F1F700C000001B
:100480001E9A82B38F7082BB1FB8779BFECF9FB13D
:1004900082B3806F82BB2091430130914401822F4F
:1004A000692F63709C7096959695209143013091C9
:1004B0004401232B09F520919001462F50E0022E94
:1004C000000C330B42175307B9F020919001211112
:1004D0002EC0613061F520911601265F2093160130
:1004E00020911601203A08F076C12091160130E0E3
:1004F000309387002093860020914301309144017E
:100500002130310531F120914301309144012230F5
:100510003105F1F12091430130914401243031053E
:1005200009F456C06093900190937A010895209148
:100530009001211103C0623009F405C12091160118
:10054000209316012091430130914401213031055F
:10055000D1F620919001462F50E0022E000C330B73
:100560004217530709F471C020919001222309F426
:1005700050C020919001211103C0623009F497C04E
:1005800080E020914301309144012230310511F681
:1005900020919001462F50E0022E000C330B4217A1
:1005A000530709F491C020919001222309F43FC020
:1005B00020919001211103C0623009F4B7C080E09E
:1005C00020914301309144012430310509F0AACF34
:1005D00020919001462F50E0022E000C330B421761
:1005E000530709F49FCF20919001211103C061307E
:1005F00009F4B1C020919001211103C0623009F4C7
:10060000CAC021E020934A016093900190937A013F
:100610000895613009F0ADCF209150012F5F2093F4
:10062000500120915001283109F06DCF2AC061306E
:1006300009F0BECF20914D012F5F20934D012091F5
:100640004D01283109F066CF5BC020917A0121115C
:100650001BC09130C9F4209151012F5F20935101AB
:10066000209151012C3309F04ECF1092510120916D
:1006700050012F5F209350012091500128310CF43C
:1006800042CF109250013FCF20917A01211178CFB3
:10069000923009F075CF20915101215020935101E2
:1006A0002091510127FF2FCF2BE32093510120915F
:1006B00050012150209350012091500127FF23CF5A
:1006C00027E1209350011FCF20917A0121111BC0F7
:1006D0009130C9F420914E012F5F20934E0120915B
:1006E0004E012C3309F016CF10924E0120914D018E
:1006F0002F5F20934D0120914D0128310CF40ACF3A
:1007000010924D0107CF20917A01211158CF9230DC
:1007100009F055CF20914E01215020934E01209198
:100720004E0127FFF7CE2BE320934E0120914D0180
:10073000215020934D0120914D0127FFEBCE27E161
:1007400020934D01E7CE209116012A5020931601E7
:1007500020911601CACE20911201309113012C5E16
:100760003F4F3093130120931201209112013091D9
:10077000130127323A4230F026E23AE23093130175
:10078000209312012091120130911301309328011E
:1007900020932701C7CE20911201309113012451DB
:1007A00031093093130120931201209112013091ED
:1007B00013012A36324230F72AE632E2309313012F
:1007C00020931201209112013091130130932801DE
:1007D00020932701A7CE2FE9209316012FE930E0BF
:1007E000309387002093860087CE42E068EC71E06A
:1007F00080E90E948B0C8FE99FE00197F1F700C020
:1008000000008091C8019091C901982789279827F5
:100810004AE061E971E0880F892F881F990B919553
:100820000E941F100E94F208E7E1F1E0A1E9B1E0A7
:100830008C91828311968C918383CF010C944A0909
:100840001F920F920FB60F9211240BB60F922F9397
:100850003F934F935F936F937F938F939F93AF9348
:10086000BF93EF93FF93809159018F5F809359015C
:100870008F7729F4809152018F5F809352010E94FB
:100880002A010E943902FF91EF91BF91AF919F9190
:100890008F917F916F915F914F913F912F910F9029
:1008A0000BBE0F900FBE0F901F9018951F920F92C6
:1008B0000FB60F9211240BB60F922F933F934F93C5
:1008C0005F936F937F938F939F93AF93BF93EF93B8
:1008D000FF93809158018F5F809358018F7749F47F
:1008E0000E94F50389E291E00E94AD0C80E00E9435
:1008F000A70CFF91EF91BF91AF919F918F917F9145
:100900006F915F914F913F912F910F900BBE0F9080
:100910000FBE0F901F901895809152018C3309F4EF
:10092000BEC08091430190914401029709F461C0D7
:100930008091430190914401049709F4CBC09091B8
:10094000500187E69802E12D1124E595E59597FD84
:10095000E3950E2E000CFF0BE050FF4F908190931B
:100960004201E0915001E802812D11248595859581
:10097000E7FD83959AE0899FE01911240E2E000C63
:10098000FF0BE050FF4F8081809341018091520125
:1009900080FD2BC087E0809340019091510187E654
:1009A0009802E12D1124E595E59597FDE3950E2E2E
:1009B000000CFF0BE050FF4F908190933F01E091BE
:1009C0005101E802812D112485958595E7FD8395D8
:1009D0002AE0829FE01911240E2E000CFF0BE0503C
:1009E000FF4F808180933E01089584E08093400111
:1009F000D4CF90914D0187E69802E12D1124E59521
:100A0000E59597FDE3950E2E000CFF0BE050FF4F90
:100A1000908190934201E0914D01E802812D1124D3
:100A200085958595E7FD83952AE0829FE01911243D
:100A30000E2E000CFF0BE050FF4F80818093410190
:100A40008091520180FDDEC087E08093400190914B
:100A50004E0187E69802E12D1124E595E59597FD75
:100A6000E3950E2E000CFF0BE050FF4F908190930A
:100A70003F01E0914E01E802812D11248595859575
:100A8000E7FD83959AE0899FE01911240E2E000C52
:100A9000FF0BE050FF4F808180933E0108958091CD
:100AA00051018F5F80935101109252018091510149
:100AB0008C3309F036CF809150018F5F80935001C5
:100AC0001092510180915001883109F02ACF109283
:100AD000500127CF809127019091280180319742C2
:100AE00008F094C08FEF809342012091270130914C
:100AF0002801369527953695279536952795A5ECA7
:100B0000B0E20E94DA0FAC01529542954F70452732
:100B10005F7045279A01ADECBCEC0E94DA0F969508
:100B2000879596958795969587959C01220F331FFB
:100B3000880F991F880F991F880F991F820F931F85
:100B4000481B590BFA01E050FF4F8081809341010F
:100B500087E080934001209127013091280136954C
:100B6000279536952795ABE7B4E10E94DA0FAC01E3
:100B7000569547959A01ADECBCEC0E94DA0F96951C
:100B8000879596958795969587959C01220F331F9B
:100B9000880F991F880F991F880F991F820F931F25
:100BA000481B590BFA01E050FF4F808180933F01B1
:100BB00020912701309128010E94DA0FAC0156954F
:100BC000479556954795569547959A010E94DA0F95
:100BD0009695879596958795969587959C01220F72
:100BE000331F880F991F880F991F880F991F820F35
:100BF000931F481B590BFA01E050FF4F80818093EF
:100C00003E01089584E08093400121CF2091270187
:100C100030912801329522952F7023273F7023278A
:100C2000A7E4B3E00E94DA0F96958795969587958D
:100C300096958795FC01E050FF4F8081809342019B
:100C400054CF84B38FEF84BB97B3906F97BB92B1AF
:100C50009F6492B991B381BBE1E6F0E09081986026
:100C60009083A89A92B382BB93B183B9E2E6F0E095
:100C70008081826080838AB7806C8ABF89B78068F0
:100C800089BF089580914901882321F080915701FF
:100C9000882389F080914901811104C08091570116
:100CA000813009F00895109257010E94080981E3EC
:100CB00091E00C944A090E9408098BE291E00E949D
:100CC0004A0981E0809357010895E1E6F0E08081D0
:100CD0008F778083E2E6F0E080818F77808387B131
:100CE000876487B986B1876886B90895369A349B38
:100CF000FECF449A24B135B1369527953695279580
:100D00008FEF90E0821B930B8C3E910510F08BEEE1
:100D100090E083BD08951F920F920FB60F92112499
:100D20008F939F938091480181110AC0809149015E
:100D3000882331F09091500180914D01981739F03E
:100D40009F918F910F900FBE0F901F9018959091CB
:100D5000510180914E019813F3CF90B384E089271D
:100D600082BBEECF8091480181110C94B8000895A8
:100D70001092C60141E068EC71E080E90E947A0CB3
:100D80002FEF81EE94E0215080409040E1F700C0C9
:100D9000000008951F920F920FB60F9211240BB608
:100DA0000F928F939F93EF93FF9381E080933B0289
:100DB000E2E6F0E0908182E089278083FF91EF9165
:100DC0009F918F910F900BBE0F900FBE0F901F90B1
:100DD00018951F98179A1A9A8FE193E00197F1F7E7
:100DE00000C000001A9890EA9A95F1F717980E94AF
:100DF000260E809112019091130190932801809307
:100E000027010C94060D1F920F920FB60F9211241A
:100E10000BB60F928F939F93EF93FF938CB18093B8
:100E20008F01E091560191E09E0F90935601F0E002
:100E3000E558FE4F8083811109C081E080936F01E6
:100E400080E280838183828310925601FF91EF912B
:100E50009F918F910F900BBE0F900FBE0F901F9020
:100E6000189591E0811101C090E09FB9779BFECF6A
:100E70006FB9779BFECF809162008860809362009B
:100E800080916200877F80936200089520916A01BB
:100E9000820F911DFC01808191E09FB9779BFECF6D
:100EA0008FB9779BFECF809162008860809362004B
:100EB00080916200877F8093620080916A018F5FDA
:100EC00080936A018031F9F0803209F00895E5EDF0
:100ED000EA95F1F700001FB8779BFECF80E88FB945
:100EE000779BFECF80916200886080936200809142
:100EF0006200877F80936200F5EDFA95F1F70000BC
:100F000010926A010895F5EDFA95F1F700001FB807
:100F1000779BFECF80EC8FB9779BFECF80916200EC
:100F200088608093620080916200877F8093620076
:100F300085ED8A95F1F7000080916A01C5CF660FB3
:100F4000660F660F605C1FB8779BFECF6FB9779B0B
:100F5000FECF209162002860209362002091620001
:100F6000277F2093620025ED2A95F1F70000FC0110
:100F70009C01285F3F4F91E081919FB9779BFECF05
:100F80008FB9779BFECF809162008860809362006A
:100F900080916200877F8093620085ED8A95F1F7EA
:100FA0000000E217F30741F7089590E4899F600D70
:100FB0001124605C1FB8779BFECF6FB9779BFECF83
:100FC0008091620088608093620080916200877FD8
:100FD000809362000895811113C081E08FB9779BDF
:100FE000FECF80E38FB9779BFECF8091620088604F
:100FF0008093620080916200877F809362000895F1
:101000008436B0F48A3060F591E09FB9779BFECFCB
:101010009DEC899F912D11249695969596952AE0A1
:10102000929F80191124805D8FB9779BFECFDDCF11
:1010300099E2899F912D112492959F70905D21E0F6
:101040002FB9779BFECF9FB9779BFECF909162001F
:1010500098609093620090916200977F90936200F5
:1010600099E2899F912D112492959F70382F24E643
:10107000929F301911242DEC329F912D11249695B9
:1010800096959695905D21E02FB9779BFECF9FB9FD
:10109000779BFECF90916200986090936200909150
:1010A0006200977F90936200AFCF87FF0C94EB07AD
:1010B00091E09FB9779BFECF9DE29FB9779BFECFD2
:1010C0009091620098609093620090916200977F87
:1010D0009093620095ED9A95F1F7000081950C943C
:1010E000EB071FB8779BFECF8EE08FB9779BFECFC3
:1010F0008091620088608093620080916200877FA7
:101100008093620008951FB8779BFECF8CE08FB963
:10111000779BFECF8091620088608093620080910F
:101120006200877F8093620008951FB8779BFECF8F
:101130008EE18FB9779BFECF8091620088608093AB
:10114000620080916200877F8093620008951FB8DB
:10115000779BFECF88E18FB9779BFECF80916200AD
:1011600088608093620080916200877F8093620034
:101170000895E2E6F0E08081886080838081877F47
:10118000808308951FB8779BFECF81E08FB9779B4E
:10119000FECF80916200886080936200809162003F
:1011A000877F809362008FE19CE10197F1F700C097
:1011B000000008951FB8779BFECF82E08FB9779B20
:1011C000FECF80916200886080936200809162000F
:1011D000877F809362008FE697E10197F1F700C067
:1011E000000008951FB8779BFECF80EC8FB9779BE6
:1011F000FECF8091620088608093620080916200DF
:10120000877F8093620085ED8A95F1F7000008954D
:101210001FB8779BFECF80E88FB9779BFECF809178
:10122000620088608093620080916200877F809373
:10123000620085ED8A95F1F70000089590E131E0B4
:1012400020E23FB9779BFECF2FB9779BFECF8091ED
:10125000620088608093620080916200877F809343
:10126000620085ED8A95F1F70000915051F70895DD
:1012700091E09FB9779BFECF8FB9779BFECF80918E
:10128000620088608093620080916200877F809313
:1012900062000895FC0140E050E060E071E0DF0191
:1012A000A40FB51F8C917FB9779BFECF8FB9779B29
:1012B000FECF9091620098609093620090916200DE
:1012C000977F9093620085ED8A95F1F700006F5F3C
:1012D000462F50E0DF010D900020E9F79D012E1B05
:1012E0003F0B2250310924173507C8F608958FEFB8
:1012F00099EF0197F1F700C0000088E0809361004A
:101300001FB8779BFECF80E38FB9779BFECF80918C
:10131000620088608093620080916200877F809382
:1013200062008FE59DE60197F1F700C000001FB84D
:10133000779BFECF80E38FB9779BFECF80916200D1
:1013400088608093620080916200877F8093620052
:101350008FE59DE60197F1F700C000001FB8779B6D
:10136000FECF80E38FB9779BFECF809162008860CB
:101370008093620080916200877F809362008FE596
:101380009DE60197F1F700C000001FB8779BFECFE4
:1013900088E38FB9779BFECF80916200886080934D
:1013A000620080916200877F809362008FE19EE4FB
:1013B0000197F1F700C000001FB8779BFECF88E0CF
:1013C0008FB9779BFECF8091620088608093620026
:1013D00080916200877F809362008FE19EE4019795
:1013E000F1F700C000001FB8779BFECF81E08FB9F6
:1013F000779BFECF8091620088608093620080912D
:101400006200877F809362008FE19EE40197F1F78D
:1014100000C000001FB8779BFECF86E08FB9779B96
:10142000FECF8091620088608093620080916200AC
:10143000877F809362008FE19EE40197F1F700C0FF
:1014400000001FB8779BFECF8CE08FB9779BFECF53
:101450008091620088608093620080916200877F43
:10146000809362008FE19EE40197F1F700C00000D5
:1014700008954F925F926F927F928F929F92AF9258
:10148000BF92CF92DF92EF92FF920F931F93CF9371
:10149000DF93CDB7DEB769970FB6F894DEBF0FBE06
:1014A000CDBF142F422E5E2C002379F06B017C01FE
:1014B000CC24F7FCC394DD24EE24FF240C2D6B0117
:1014C0007C0197FDA3C0C701B601442009F496C072
:1014D0009E012F5F3F4F5901490166246A94640CB5
:1014E000712C3FEF631A730A6A0C7B1C2AE030E010
:1014F00040E050E00E94B20FE62F2A8B3B8B4C8BD2
:101500005D8B6A897B898C899D8920E32E0FF4018C
:1015100021934F016E167F0649F799249394940CFA
:10152000F501E40DF11D2EE220832AE030E040E0D9
:1015300050E00E94B20FE62F2A8B3B8B4C8B5D8BC9
:101540006E8B7F8B888F998F6A897B898C899D8927
:1015500031E0390DD501A90DB11DE05DEC93932E5D
:10156000611571058105910501F7112361F0511095
:101570004BC090E2311738F4F501E30FF11D908371
:101580003F5F1313F9CF002331F0F501E30FF11D95
:101590009DE290833F5F21E03150F501E30FF11DA3
:1015A00090812FB9779BFECF9FB9779BFECF90910B
:1015B000620098609093620090916200977F909390
:1015C000620085ED8A95F1F700003111E5CF69964B
:1015D0000FB6F894DEBF0FBECDBFDF91CF911F9144
:1015E0000F91FF90EF90DF90CF90BF90AF909F90C2
:1015F0008F907F906F905F904F900895912C9E01F7
:101600002F5F3F4F590191CF90E3B4CFF094E09416
:10161000D094C094C11CD11CE11CF11C54CF5F922A
:101620006F927F928F929F92AF92BF92CF92DF92F2
:10163000EF92FF920F931F93CF93DF93CDB7DEB757
:1016400061970FB6F894DEBF0FBECDBF5C01162FB9
:10165000742E6B2C661C6624661C562C9C0197FD10
:101660009BC0772009F48DC0CE0101967C016C01EE
:1016700088248A94870C912C9FEF891A990A8E0CE2
:101680009F1C6AE070E0C9010E949E0F462F242F24
:10169000372F805DF60181936F01E815F90589F711
:1016A000DD24D394D70CF701E70DF11D8EE2808382
:1016B00001C0D92E6AE070E0C9010E949E0F462F3A
:1016C000242F372F91E09D0DF701ED0DF11D805D69
:1016D00080832115310569F7011158C0B7FC61C03D
:1016E0001123A9F0712C80E2292F30E0412F50E026
:1016F000461957092417350754F49F5FF701E20F85
:10170000F31F8083292F30E024173507B4F35520C9
:1017100031F0F701E90FF11D8DE280839F5F21E039
:101720009150F701E90FF11D80812FB9779BFECF12
:101730008FB9779BFECF80916200886080936200B2
:1017400080916200877F80936200E5EDEA95F1F772
:1017500000009111E5CF61960FB6F894DEBF0FBE81
:10176000CDBFDF91CF911F910F91FF90EF90DF9050
:10177000CF90BF90AF909F908F907F906F905F9031
:101780000895D12CCE0101967C0194CF112309F448
:10179000BECF712C80E3A8CF22273327281B390B1B
:1017A00060CFD394D394F701E90FF11D8DE28083CC
:1017B000112359F02D2D30E0412F50E0241735072B
:1017C00024F49D2D512C80E298CF9D2DA8CF1F92FF
:1017D0000F920FB60F9211240BB60F922F933F93D7
:1017E0008F939F93AF93BF93EF93FF93E09171001B
:1017F0008E2F90E0FC013897E135F105B0F0809133
:1018000071008093C10184E080937400FF91EF9197
:10181000BF91AF919F918F913F912F910F900BBEF0
:101820000F900FBE0F901F901895EA5BFF4F0C941E
:10183000D10F80916B01E091C201F091C301E80FDB
:10184000F11D80917300808384E980937400DECF62
:101850008091C4018093730010926B0185E880939E
:101860007400D4CF80916B019091C501891760F706
:10187000E091C201F091C30191E0980F90936B0148
:10188000E80FF11D80818093730085E880937400D8
:10189000BDCF85EA80937400B9CF20916B01809110
:1018A000C50130E090E0019728173907DCF485EC9A
:1018B00080937400ABCFE091C201F091C30180919D
:1018C0006B0121E0280F20936B01E80FF11D80913F
:1018D000730080838091C50130E090E00197281764
:1018E00039072CF385E88093740090CF80917400C1
:1018F000817008959091740090FDFCCF8E7F80934D
:10190000C4017093C3016093C2014093C50185EA8D
:101910008093740008959091740090FDFCCF8160D5
:101920008093C4017093C3016093C2014093C501C9
:1019300085EA8093740008958FEF8093730010926E
:1019400071008CE08093700008958FEF08955D9B87
:10195000FECF8CB95D9BFECF0895FC019081992349
:1019600049F031965D9BFECF9CB95D9BFECF919176
:101970009111F8CF08959C01FC014491442369F032
:101980000196F90124915D9BFECF2CB95D9BFECFA2
:101990009C01FC0144914111F3CF08958AB18869FB
:1019A0008AB9E5E9F0E0808186608083109290003A
:1019B00087E689B9089580E89EE302C0019721F087
:1019C0005F9BFCCF8CB1089580E0089584E1809303
:1019D0001A0241E06AE172E082E20E947A0C0E94FF
:1019E000760C8111FCCF8FEA94E00197F1F700C0EB
:1019F000000041E06CE372E082E20E948B0C0E94E6
:101A0000760C8111FCCF80913C02089580E2809396
:101A10001A0210921B028091270190912801909345
:101A20001C0280931D0210921E0210923B0245E0A0
:101A30006AE172E082E20E947A0C80913B02882384
:101A4000E1F3089580E480931A0210921B028091C2
:101A500078019091790190931C0280931D0210925D
:101A60001E0210921F0210923B0246E06AE172E0F1
:101A700082E20E947A0C80913B028823E1F3089570
:101A8000EAE1F2E080E48083118280918B01909101
:101A90008C0192838383148281E0858346E0BF01B9
:101AA00082E20E947A0C2FEF87EE93E02150804073
:101AB0009040E1F700C0000008958091540190919A
:101AC00055018130910551F100F1029741F4609187
:101AD0008B0170918C018DE891E00E946F106091F4
:101AE00072018CE691E00E94621081E180931A02FB
:101AF00041E06AE172E082E20E947A0C87ED94E0B4
:101B00000197F1F700C000000895609127017091DE
:101B100028018DE691E00E946F10E1CF609178017D
:101B20007091790180E791E00E946F10D8CF83E235
:101B300080931A0281E080931B0242E06AE172E026
:101B400082E20E947A0C0E94760C8111FCCF8FEA0F
:101B500094E00197F1F700C0000048E063E272E012
:101B600082E20E948B0C0E94760C8111FCCF0895BA
:101B700082E280931A0281E080931B0242E06AE1D4
:101B800072E082E20E947A0C0E94760C8111FCCFF6
:101B90008FEA94E00197F1F700C0000048E063E2AB
:101BA00072E082E20E948B0C0E94760C8111FCCFC5
:101BB000089582E480931A0281E080931B0242E040
:101BC0006AE172E082E20E947A0C0E94760C811136
:101BD000FCCF8FEA94E00197F1F700C0000048E0E5
:101BE00063E272E082E20C948B0C83E480931A022D
:101BF00081E080931B0242E06AE172E082E20E948F
:101C00007A0C0E94760C8111FCCF8FEA94E0019748
:101C1000F1F700C0000048E063E272E082E20C9459
:101C20008B0CEAE1F2E022E120831182928383832C
:101C30007483658346E0BF0182E20E947A0C8FE3E1
:101C40009CE90197F1F700C0000008958DE691E04E
:101C50000E945C1090932801809327018CE691E00C
:101C60000E94541080937201EAE1F2E081E08083E7
:101C700080E5818385E0828343E0BF0182E20E94A8
:101C80007A0C2FEF8BED95E0215080409040E1F7EA
:101C900000C0000061E070E081E090E00C94110E63
:101CA00080E791E00E945C10909379018093780125
:101CB0008CE691E00E94541080937201EAE1F2E018
:101CC00081E0808381E5818385E0828343E0BF01F9
:101CD00082E20E947A0C2FEF8BED95E0215080403C
:101CE0009040E1F700C0000061E070E081E090E02A
:101CF0000C94110E8DE891E00E945C1090938C0181
:101D000080938B018CE691E00E94541080937201C5
:101D1000EAE1F2E081E0808381E5818385E08283EE
:101D200043E0BF0182E20E947A0C2FEF8BED95E039
:101D3000215080409040E1F700C0000060E070E07A
:101D400082E093E30E94110E61E071E082E091E392
:101D50000E94110E61E070E081E090E00C94110EA1
:101D600087B3876087BB8DB18C658DB9709A80B75A
:101D7000886080BF87B7836087BF83B7816083BF78
:101D80008FEF81BF8EB58B608EBD10927A0087B7C2
:101D9000846187BF80E490E09BBD8ABD85B589667C
:101DA00085BD80918B00826880938B0080918A0032
:101DB000896180938A0010928C008FE990E0909363
:101DC0008100809380001092890010928800909387
:101DD000870080938600809161008F7780936100F7
:101DE000809162008F778093620087B1876487B9A2
:101DF00086B1876886B90E9421060E949C0C1092C9
:101E0000C60141E068EC71E080E90E947A0C2FEF96
:101E100081EE94E0215080409040E1F700C0000046
:101E20000E94CE0C0E9477097894D1E0CFEF809188
:101E30006F01813009F450C08091480181115BC06D
:101E40000E9476060E948C040E94420680914701FF
:101E5000882389F080914B01882309F455C00E94A2
:101E6000080981E391E00E944A09109247010E940B
:101E70005D0D10924B0180914A01882321F08091E1
:101E80004B01811152C0EEE3F1E080E090914901F5
:101E9000992329F0909140019370909340012091F3
:101EA0004301309144012430310541F191919BBBB4
:101EB000982F9295907F98BBA7E5B2E01197F1F724
:101EC00000C00000CBBB8F5F853001F718BA80914E
:101ED0006F01813009F0B0CF80917B0180931F01A9
:101EE00080917C018093200110926F0180914801C4
:101EF000882309F4A5CF0E94B800A2CF90913F019A
:101F00009F7790933F01D2CF0E94080987E391E029
:101F10000E944A0910924701D0934B011092490147
:101F20000E94E9060E94E906A6CF10924A0180911C
:101F30002701909128010E94060DA5CF97FB072E3F
:101F400016F4009407D077FD09D00E94E90F07FC32
:101F500005D03EF4909581959F4F089570956195B9
:101F60007F4F0895052E97FB1EF400940E94C90F21
:101F700057FD07D00E94FD0F07FC03D04EF40C94D0
:101F8000C90F50954095309521953F4F4F4F5F4F6A
:101F9000089590958095709561957F4F8F4F9F4FD5
:101FA0000895EE0FFF1F0024001C0BBE0790F69152
:101FB000E02D0994A29FB001B39FC001A39F700DB3
:101FC000811D1124911DB29F700D811D1124911D41
:101FD0000895AA1BBB1B51E107C0AA1FBB1FA61770
:101FE000B70710F0A61BB70B881F991F5A95A9F7C2
:101FF00080959095BC01CD010895A1E21A2EAA1BEF
:10200000BB1BFD010DC0AA1FBB1FEE1FFF1FA217A8
:10201000B307E407F50720F0A21BB30BE40BF50BA5
:10202000661F771F881F991F1A9469F7609570952E
:10203000809590959B01AC01BD01CF010895BB2710
:102040004A3031F4992322F4BDE2909581959F4F57
:102050000C942B10BB27FB015527AA27880F991F2B
:10206000AA1FA41710F0A41B83955051B9F7A05DC7
:10207000AA3308F0A95DA193009779F7B111B19344
:102080001192CB010C944410DC01FC01672F71917B
:102090007723E1F7329704C07C916D93708362914E
:1020A000AE17BF07C8F30895E199FECF9FBB8EBB63
:1020B000E09A99278DB30895A8E1B0E042E050E09E
:1020C0000C947610262FE199FECF9FBB8EBB2DBBC3
:1020D0000FB6F894E29AE19A0FBE019608950E9415
:1020E0006210272F0C946310DC01CB01FC01E199F5
:1020F000FECF06C0FFBBEEBBE09A31960DB20D924B
:0C21000041505040B8F70895F894FFCF0C
:10210C00C0F9A4B0999282F880908883C6A1868E7B
:10211C00FF00062786299F4C3A20204320523A2064
:10212C002043202020202006274100416C61726D45
:0E213C0000202020202000524144494F000086
:00000001FF
